:1000000008200300694A02002D490200314902001C
:100010007D4A0200814A0200854A02000000000079
:10002000000000000000000000000000894A0200FB
:100030008D4A02000000000075D800001FFC01007E
:100040000000000000000000914A0200E5480200A4
:1000500089290100000000000000000000000000ED
:100060000000000000000000714A020000000000D3
:100070000000000000000000593B010000000000EB
:100080003F3C0100813C0100294702002947020052
:10009000B545020000000000000000000000000064
:1000A00070B500224FF41261DFF8140B02F002F970
:1000B000DFF8104B0022102104F11C0002F0FAF8C6
:1000C000DFF8045B0022182105F10C0002F0F2F8C1
:1000D0000022082104F12C0002F0ECF80022082193
:1000E00004F1340002F0E6F80020E063206460646C
:1000F000A0646862A862E862DFF8D06AB063F06367
:10010000E0642863306470646863A863E863012076
:1001100028640020B064F0644FF0FF306864A86485
:100120000020E864306520657065F06530667066B3
:10013000B066F06202462C21304602F0BBF842F273
:1001400010707081B081002070600220308100202A
:10015000306002460C21204602F0ACF8DFF8700A4D
:100160006060DFF8700A2060012020720020287093
:1001700028656880A880E8806065F0662881A065B1
:1001800030636865A8656066A066E0667067306782
:1001900068662866E86501202867E866A86600208A
:1001A000E867A86768670620B0860020A082F0672D
:1001B000B0672067DFF8200AE06500202066012094
:1001C000E082962068810620F0860C2020830020A3
:1001D000B06502464021DFF85C0D02F06BF80022AA
:1001E000062104F10C00BDE8704002F063B810B5C0
:1001F00084B0DFF8D0490C22214600A802F098F81C
:10020000FFF74EFF0C2200A9204602F091F81FBD17
:100210002DE9F0472DED0C8B90B00024254600A869
:1002200021460A460B460EC0302102F0B9F89FED78
:100230009B8ADFF8906996ED1B0AD6ED140AC6ED8D
:100240001B0ADFF8887997ED149A86ED149ADFF887
:10025000788998ED131AB8EE411ADFED911AC1EEC4
:10026000819AC7ED149AD8F84420D8F83490A9EBB5
:100270000200FA30FA21B0FBF1F1FA2303FB11007E
:1002800080B2002800F0FE834C2880F28180D8F8EC
:10029000401001297CD0D7F84CA0BAF1040F21D32B
:1002A000F4EE490AF1EE10FA1CD5B4EE699AF1EEBB
:1002B00010FA17D59FED7B1A20EE811AB4EE691A59
:1002C000F1EE10FA0ED59FEDDB1AF4EE419AF1EE45
:1002D00010FA07DB87ED149AC6ED140A86ED1B0AA7
:1002E00000F009BC97ED0EAA87ED0FAAD7ED10AA72
:1002F000C7ED11AA014600EE101AB8EE400AD8ED7B
:100300000B8AC8EE800A98ED0C1A81EE001A21467D
:10031000B963396420E0521C92B2FA2A00D1224615
:10032000DFF89C3803EB8203D3ED231A71EEE01A59
:10033000D3F8743402EE103A32EE412AD7ED0E2A89
:1003400041EEA12AC7ED0E2AD7ED101A42EE021A8D
:10035000C7ED101A491C89B28142DCDBD7ED0E0AC9
:1003600080EE80BA87ED0EBAD7ED100A80EE80CA13
:1003700087ED10CAD6ED1ABA98ED150AD8ED160A0F
:1003800070EE60CAC6ED1ACA00F092FF012802D1D1
:100390002046386376E3BAF1000F0BD1388E05287A
:1003A00002DB054620463886788E052802DB451993
:1003B000204678861AFA85F0002824D1B6EE00DAB5
:1003C0003CEE2A0A20EE0D0ADFED9B0AB4EE600A2D
:1003D000F1EE10FA11D43BEE0A0A20EE0D0ADFED21
:1003E000970AB4EE600AF1EE10FA06D4B3EE040AEE
:1003F000F4EE40CAF1EE10FA05D5388E401C38866E
:10040000C8F848903EE3388E002802D045192046AF
:1004100038861AFA85F0002815D1B7EE000AF4EEF6
:10042000409AF1EE10FA00F12D839FED850AF4EE6B
:10043000409AF1EE10FA03DB788E401C788621E3B7
:100440002046788603E0788E45192046788628462F
:1004500080B200F0C3FF012808D187ED149AC7EDE0
:1004600010AAC6ED1ABA87ED0EAA0BE39FED750A26
:10047000F4EE409AF1EE10FA02DBDFF8180C386562
:1004800020463886BAF1000F0ED1386D786586EDBA
:1004900013BAC6ED19CA00F0A5FE3CE0000000004A
:1004A00000007A446666E63FB6EE00DA00F09AFE97
:1004B000012816D197ED140AF0EE000A20EE200A6A
:1004C00087ED140A6BEE0D0AC7ED0E0A2CEE0D1A1D
:1004D00087ED101AC7ED0F0A87ED111A86ED140A81
:1004E0006D1C97ED140AD6ED140A30EE200A20EEAA
:1004F0000D0A87ED150A97ED0E0AD7ED0F0A30EEBB
:10050000200A20EE0D0A86ED130A3BEEAC0A20EE1F
:100510000D0A86ED190A98F80100012840F0A7821B
:10052000D8F80C00009000A8D8F810104160D8F856
:1005300014108160214617E000AB03EB820393EDBA
:10054000010A50F822C000EE90CAB4EE600AF1EE43
:1005500010FA05D500EB820C8CED000AC3ED010A00
:10056000521C022AE8DB491C022901DA2246F8E77C
:100570009DED000AB5EE400AF1EE10FA2AD5B5EE6F
:10058000400AF1EE10FA01DCB1EE400AD0ED020AA9
:1005900030EE800A80ED020A9DED000AB5EE400AB9
:1005A000F1EE10FA01DCB1EE400AD0ED010A30EEB6
:1005B000800A80ED010A9DED000AB5EE400AF1EED9
:1005C00010FA01DCB1EE400ADDED000A30EE800ADF
:1005D0008DED000A90ED010AD0ED020A30EEC01A4E
:1005E000DDED000A30EE600AB4EE401AF1EE10FACA
:1005F00005D5F0EE410AB0EE401AB0EE600AD6ED35
:100600000B0AC6ED0C0A31EE400A80EE010A9FED9E
:100610000E1A20EE010A86ED0B0A706BB063F4EE41
:10062000400AF1EE10FA11D570EE600AC6ED0D0A1F
:1006300010E000BF01004040000016430000A0424F
:10064000666616400100A0400000C84270EEC00A75
:10065000C6ED0D0A386F796F081800EBD0704010A6
:1006600002EE100A86ED0F2AC6ED108AD7ED100AA9
:10067000C6ED110AD7ED141ADFF8300CC0EDC41A1C
:1006800096ED121A31EE611AD6ED122A72EEE12AB7
:1006900021EE221A00F5447181ED011AC6ED121AFD
:1006A000D7ED1B1AC1ED021AD8F81810039103A94F
:1006B000C1ED011AC1ED020AC1ED038AC1ED041AB0
:1006C000C1ED058AC1ED061AB8EEC22A81ED072AEE
:1006D000C1ED081A81ED090AC1ED0A1A81ED0B1A64
:1006E000DDED032A9FEDD03A62EE832A9FEDCF3AEB
:1006F00041EE832A9FEDCE3A20EE833ADFEDCD3AEC
:1007000008EEA33ADFEDCC3A61EEA33A9FEDCB4A77
:1007100048EE843A9FEDCA4A21EE844ADFEDC94A89
:1007200002EE244ADFEDC84A61EEA44A9FEDC75AA3
:1007300040EE054A9FEDC65A21EE855ADFEDC55AB7
:1007400001EE255AF8EE085AF4EE652AF1EE10FA99
:1007500000F18D81DFEDC05AB4EE653AF1EE10FA8A
:1007600000F18581DFEDBD5AF4EE653AF1EE10FA45
:1007700000F17D81DFEDBA5AB4EE654AF1EE10FA70
:1007800000F175819FEDDF6AF4EE464AF1EE10FA52
:1007900000F16D819FEDDC6AB4EE465AF1EE10FA7D
:1007A00000F16581DFEDD96AF4EE662AF1EE10FA08
:1007B000C0F25D81DFEDD62AB4EE623AF1EE10FAB6
:1007C000C0F25581F4EE653AF1EE10FAC0F24F81B5
:1007D000B4EE464AF1EE10FAC0F24981F4EE654AF1
:1007E000F1EE10FAC0F24381DFEDCA2AB4EE625A8C
:1007F000F1EE10FAC0F23B81DFEDC72A9DED033A1E
:10080000B4EE623AF1EE10FA01D5CDED032ADDED3A
:10081000032A9FEDD83AF4EE432AF1EE10FA02DBF8
:10082000DFF8AC2B0392DFEDD42AF4EE621AF1EE7E
:1008300010FA01D5C1ED012A9FEDB83ADFEDB83AC3
:1008400091ED014AB4EE634AF1EE10FA01DB81ED5D
:10085000013A9FEDB44AF4EE440AF1EE10FA01D5E4
:1008600081ED024AD1ED020A9FEDAF4AF4EE440A4F
:10087000F1EE10FA02DBDFF85C2B8A60DFEDBF0AD5
:10088000F4EE608AF1EE10FA01D5C1ED030A9FED96
:10089000BC4AD1ED034AF4EE444AF1EE10FA02DB11
:1008A000DFF8342BCA60F4EE621AF1EE10FA01D5CB
:1008B000C1ED042AD1ED044AF4EE634AF1EE10FAD8
:1008C00001DB81ED043AF4EE608AF1EE10FA01D515
:1008D000C1ED050AD1ED050AF4EE440AF1EE10FA75
:1008E00002DBDFF8F42A4A61F4EE621AF1EE10FA44
:1008F00001D5C1ED062AD1ED060AF4EE630AF1EE48
:1009000010FA01DB81ED063AF1EE000AB4EE602A3E
:10091000F1EE10FA02D54FF08142CA61D1ED070A1B
:100920009FEDA12AF4EE420AF1EE10FA02DBDFF8A5
:100930002C2CCA61F4EE621AF1EE10FA01D5C1ED69
:10094000082AD1ED080AF4EE630AF1EE10FA01DB91
:1009500081ED083ADFED950AB4EE600AF1EE10FA87
:1009600001D5C1ED090A91ED090ADFED910AB4EE56
:10097000600AF1EE10FA02DBDFF8E42B4A62F4EED3
:10098000621AF1EE10FA01D5C1ED0A2A91ED0A0AB8
:10099000B4EE630AF1EE10FA01DB81ED0A3AB5EE2E
:1009A000401AF1EE10FA01D52246CA6291ED0B0A07
:1009B000DFED800AB4EE600AF1EE10FA02DBDFF838
:1009C000A42BCA62214612E01B1FD3ED000A92ED50
:1009D000031AF4EE410AF1EE10FA01D59FED760A02
:1009E000B8EEC00AD2ED020A00EE208A491C312975
:1009F00038DA9FED720A0B011A18D2F804C0BCF164
:100A0000010F0DF10C0C1B580CEB8303DCD11B1FE9
:100A1000D3ED000A92ED031AF4EE410AF1EE10FA5A
:100A2000DEDB9FED650ADBE7168733BDB0568DBD73
:100A300003275BB9E23C9CB9983115BEBF49D3B9D5
:100A40007061FDBD55C128BC36CB05BE3D7FDABB0C
:100A5000DDED0ABEE4BE353E6666A6BF3333F3BFA6
:100A6000CDCC4CBFB5EE408AF1EE10FA0ADC97ED22
:100A7000150A284680B200F0B1F800F057F8044695
:100A8000C8F84890C8F844900020C8F84C00C8F84E
:100A90002C00C8F83000C8F840000246102106F1CA
:100AA0001C0001F007FC00220C2108F10C0001F0F1
:100AB0007BFC4948F06500203066F88800281AD190
:100AC000F86F00280CD0B86C3969401AB98EB0EBB9
:100AD000510F02DB002038810DE0012038810AE04F
:100AE000388E798E11FA80F0032802DB01203881DC
:100AF00001E002203881204610B0BDEC0C8BBDE82F
:100B0000F08700BFCDCC8CBF333333BFCDCC0CC00E
:100B10009A9919BFCDCC4CBE5017C93F15E6684015
:100B200016E668407D90A341A2F2924438B50025B4
:100B3000DFF8BC4B0120E06700F0F0FC2060E06CC7
:100B4000A18E884214D3A06C2061A08DA080E08D7E
:100B5000E080A06DA061E06DE061206E2062606EBB
:100B60006062A06EA0620120A0672846E0670125B0
:100B7000284632BDC9AC4542A9F56E3EBA9F17441E
:100B80003564EC441148016981640021C16441600D
:100B9000022101810021C162016A0166816A8166C8
:100BA0000021C16770470000010058427B4D4F3D56
:100BB00047FFC742BEBA984101000000FFFFFFFF98
:100BC000506A0300205F0300245D0300A45D03005E
:100BD00000002F430000704200007A442DE9F84FD6
:100BE0002DED048B82B08346F0EE400A00239E4632
:100BF0001846DFF8FC4AE56C05F10F0101F00F0122
:100C0000EA1D02F007020092CA4A02EB8106C6ED15
:100C1000000ABBF1000F15D0064611E04F1EBF1BA6
:100C200010374FEAE70C07EB1C7C4FEA2C1CB7EBA4
:100C30000C1703D402EB8707C7ED000A761C36B207
:100C40005E45EBDB102D02D2294609B200E00F21F0
:100C50009FEDB68A9FEDB51ADFEDB51A06461BE08B
:100C600052F8217000EE107AB5EE400AF1EE10FA5B
:100C700010DD38EE008AB4EE401AF1EE10FA01D51C
:100C8000B0EE401AB4EE610AF1EE10FA01D5F0EEC2
:100C9000401A761C491E09B20029E1D536B2314608
:100CA00003290BDB38EE410A30EE610A891E01EEA2
:100CB000101AB8EEC11A80EE018A07E0012905DB9F
:100CC00000EE106AB8EEC00A88EE008AB5EE408ADF
:100CD000F1EE10FA01D0002E01D1B0EE608A84ED61
:100CE000168A9FED950AB4EE408AF1EE10FA02D50D
:100CF000B0EE408A08E09FED910AB4EE408AF1EE32
:100D000010FA01DBB1EE028AB0EE040AB4EE408ABA
:100D1000F1EE10FA08D494ED1B0AF0EE080AB4EED6
:100D2000600AF1EE10FA02D50321A18501E0042149
:100D3000A185A66C06F00708DFF8BC7908EB070C64
:100D4000A18D8CF8B818BBF1000F0AD0721E02F00A
:100D50000702D21906F00709B94499F8B89882F841
:100D6000B89808220EE0B9F1040F00D1401CA8F198
:100D700001080FFA88F8B8F1000F01D508F108084A
:100D8000521E12B2012A16DB0FFA88F808EB070987
:100D900099F9B898B9F1030F02D10EF1010E03E0F1
:100DA000B9F1040F00D15B1C062AE0DBB9F1030F97
:100DB000D9D1401EDBE7E28D9BB21FFA8EFE734550
:100DC00007D39E4502D20420E0850DE000B2002842
:100DD00002D50320E08507E0012802DB0420E0853E
:100DE00002E09CF9B808E085B4F82E80B8F1040F51
:100DF00001D1184600E07046424509D0002020810C
:100E0000E088002820D1042D1ED3012020811BE082
:100E100013FA8EF2012A15DB052A10DB00EE102AE8
:100E2000B8EEC00AF6EE080A20EE200A00EE900A9C
:100E3000F8EE600AF4EE400AF1EE10FA02D5012055
:100E4000208101E002202081DFF8B09849B2B0EEA5
:100E5000480A484600F020F9DFED8D0AB4EE600A3A
:100E6000F1EE10FA01D5B0EE600A84ED170A58468B
:100E700000F1010A00EE90AAF8EEE08AD4ED180A1B
:100E800048EE800AC4ED180A9FEDCB9A20EE080ABE
:100E900020EE090A009907EB810101F65C0181ED62
:100EA000000ABBF1000F16D0002212E00099491E83
:100EB000891A08318B1001EB5373DB10B1EBC301BE
:100EC00005D407EB810101F65C0181ED000A521C9B
:100ED00012B28242EADB082D02D2284600B203E0B9
:100EE000072001E0401E00B20028FBD584ED190A5E
:100EF000414649B2484600F047F968EE090AB7EEA4
:100F0000001AC1EE200A20EE800AD4ED1A0A48EE3B
:100F1000800AC4ED1A0A0AEB0600A0640AEB050079
:100F2000E06402B0BDEC048BBDE8F18F000000006E
:100F30000000C84274BE03006666A63F01009040F0
:100F400049B2032944D1DFED9D0AB4EE600AF1EE07
:100F500010FA01DBB0EE600A9FED991ADFED990AF5
:100F600040EE010A90ED011A9FED970AB4EE401A87
:100F7000F1EE10FA43DADFED951AB4EE611AF1EEF4
:100F800010FA74DBB4EE401AF1EE10FA6FD59FED53
:100F9000900A31EE000ADFED8F1A60EE211A9FED04
:100FA0008E0A9FED8E2A01EE002A22EE200A20EE04
:100FB000210A9FEDB72ADFEDB72A41EE022A62EE41
:100FC000A00AB7EE001A31EE611A00EE810A56E06F
:100FD000DFED830A60EE200A60EE800A9FEDAE1A14
:100FE00040EE410A9FEDAD0A70EE800A90ED011AC5
:100FF0009FED750AB4EE401AF1EE10FA0ADB90ED9F
:10100000010A9FED751ADFED751A40EE011A21EE07
:10101000A00A34E0DFED6D1AB4EE611AF1EE10FAB9
:1010200025DBB4EE401AF1EE10FA20D59FED680AE8
:1010300031EE000ADFED671A60EE211A9FED660AB5
:101040009FED662A01EE002A22EE200A20EE210AF8
:101050009FED8F2ADFED8F2A41EE022A62EEA00A71
:10106000B7EE001A31EE611A00EE810A07E090ED4A
:10107000010A20EE800ADFED8A0A20EE200A007ABB
:10108000022803D1DFEDCA0A20EE200A70470000D3
:10109000CDCC4C3E0000A04010B52DED028BB0EE43
:1010A000408A0C46DFED7F8A49B2FFF749FF64B200
:1010B000042C31D1DFED7C0AB4EE608AF1EE10FA37
:1010C00016DBB1EE021AB4EE418AF1EE10FA0FD53A
:1010D000DFEDB80A78EE200AB1EE041A60EE810A5C
:1010E000FCEEE00A10EE900AC01D08EE900A3DE00A
:1010F000B4EE608AF1EE10FA03D5072008EE900AEC
:1011000034E0F1EE020AB4EE608AF1EE10FA2DDB63
:10111000122008EE900A29E0F7EE080AB4EE608A81
:10112000F1EE10FA11DBDFEDA40AB4EE608AF1EE05
:1011300010FA0AD5FFEE080A78EE200AB1EE041A7A
:1011400060EE810AFCEEE08A10E0F7EE080AB4EEE9
:10115000608AF1EE10FA09D4DFED970AB4EE608AE6
:10116000F1EE10FA02DB062008EE900ADFF8580DC7
:1011700018EE901A00EB8100D0ED000A20EE200A54
:10118000BDEC028B10BD0000F0EE0C0A49B2042940
:1011900004D19FED8A1A40EE010A03E09FED881A00
:1011A00040EE010A9FEDDB0A20EE800AD0ED000A36
:1011B00020EE200A70470000000070429A99194002
:1011C0006ADEF13D8638163F00002A4300001643D0
:1011D000000016C3CDCC4C3D4260E53A6666263F22
:1011E0002575C23E0020DFF8081591ED140AF7EED0
:1011F000040AB4EE600AF1EE10FA47DADFF8CC2CFC
:10120000D288042A42DAD1ED150A9FED6E1A60EEFB
:10121000810AB4EE600AF1EE10FA03D5022A01DB6E
:10122000012012E0DFF8D41491ED0A0ADFED660A1E
:10123000B4EE600AF1EE10FA07DBDFED640AB4EEFB
:10124000600AF1EE10FA00D5012001281ED1DFF866
:10125000AC1491ED170AD1ED180A70EEC00A9FED9B
:10126000AE1AF4EE410AF1EE10FA07DBF7EE080AC7
:10127000B4EE600AF1EE10FA00D50020DFEDB30AFB
:10128000B4EE600AF1EE10FA00D5002070470000BD
:1012900052491D3BB81E053F7593E83F24975340C4
:1012A000C1C0C03B00000000666606404C50030011
:1012B0000021DFF83C24D38D032B1BDA92ED140AB6
:1012C000DFEDA30AB4EE600AF1EE10FA12DB92ED44
:1012D0000E0AF2EE040AB4EE600AF1EE10FA09D535
:1012E00092ED100ADFED9B0AB4EE600AF1EE10FAFF
:1012F00000D5012192ED100AF6EE000A92ED111AC6
:1013000030EE011A21EE201AF3EE0E1AB4EE611A35
:10131000F1EE10FA1CD492ED0E1AD2ED0F1A71EE06
:10132000211A61EEA01AB2EE042AF4EE421AF1EE8E
:1013300010FA0DD4F3EE041AB4EE610AF1EE10FACD
:1013400006D4B1EE040AB4EE401AF1EE10FA00D55C
:10135000012192ED140A9FED801AB4EE410AF1EEDC
:1013600010FA23DBDFF8942392ED090A92ED0A1AB2
:1013700080EE010A9FEDA51AB4EE410AF1EE10FAD3
:1013800014DB00EE100AB8EE400A20EE200AD2ED7F
:10139000070AF4EE400AF1EE10FA07D5D2ED080A7A
:1013A000F4EE400AF1EE10FA00D50121084670472C
:1013B0003333733F666606C09A993940CDCC4C3EB4
:1013C000CDCCCC3D3333333F010020420000C84236
:1013D000C8AC4542A1F292443464EC440021C44AB2
:1013E000D36C13FA80F0022816D392ED140ADFEDC5
:1013F000880AB4EE600AF1EE10FA0DDB92ED110AE4
:10140000D2ED100A80EE200ADFED820AB4EE600A07
:10141000F1EE10FA00DB0121022818D39FED7E0ABD
:10142000D2ED110A92ED101AC0EE810AF4EE400AD4
:10143000F1EE10FA0BDBD2ED0F0A92ED0E1AC0EEB0
:10144000810AF4EE400AF1EE10FA00DB01210028D7
:101450000ED0AA4890ED190ADFED9E0A20EE200A70
:10146000D0ED1A0AF4EE400AF1EE10FA00D501218F
:1014700092ED140ADFED980AB4EE600AF1EE10FA6C
:1014800008DA92ED150ADFED950AB4EE600AF1EE86
:1014900010FA1ADB92ED100ADFED910AB4EE600A41
:1014A000F1EE10FA0DD492ED0E0ADFED8E0AB4EED5
:1014B000600AF1EE10FA04D4DFF8100AC08802289E
:1014C00003DBD08D032800DB01218C4890ED130A4B
:1014D000DFED830AB4EE600AF1EE10FA08D492ED63
:1014E0001B0AF1EE040AB4EE600AF1EE10FA0ED512
:1014F000106F526F101800EE100ABAEEEF0ADFED0F
:101500007A0AB4EE600AF1EE10FA00DB0121084617
:10151000704700000AD7A33B0100C03F0020744978
:101520008A6C12F10A0F0FD29FED700AD1ED180AE2
:10153000F4EE400AF1EE10FA06DAD1ED1A0AF4EEF2
:10154000400AF1EE10FA00DB0120704785EB113FF5
:1015500001000040000020420100404000005842CD
:1015600046FFC742BDBA984110B401460020634A05
:10157000614BD3F8144900EE104AD1ED000AB4EEE5
:10158000600AF1EE10FA08D1147B641C1473E4B203
:10159000FE2C04DB3224147301E00446147303F6BA
:1015A000141393ED010AD1ED010AB4EE600AF1EED5
:1015B00010FA08D1547B641C5473E4B2FE2C04DB93
:1015C0003224547301E00446547393ED020AD1EDC2
:1015D000020AB4EE600AF1EE10FA08D1917B491CC0
:1015E0009173C9B2FE2904DB3221917301E00146F7
:1015F0009173117B322905DA517B322902DA917B12
:10160000322900DB012010BC704700003433333F27
:10161000010060400100A04001007041014600202F
:1016200091ED000AB5EE400AF1EE10FA01DCB1EEE0
:10163000400A324ADFED2F0AB4EE600AF1EE10FAEA
:1016400008DBD37B5B1CD373DBB2FE2B04DB3223C2
:10165000D37301E00346D37391ED010AB5EE400A5E
:10166000F1EE10FA01DCB1EE400AB4EE600AF1EEE0
:1016700010FA08DB137C5B1C1374DBB2FE2B04DB5B
:101680003223137401E00346137491ED020AB5EEA0
:10169000400AF1EE10FA01DCB1EE400AB4EE600A45
:1016A000F1EE10FA08DB517C491C5174C9B2FE29D5
:1016B00004DB3221517401E001465174D17B32299F
:1016C00005DA117C322902DA517C322900DB012053
:1016D000704700009A99993E0100904001008040B7
:1016E0000000C8430000164301005C428096184B7E
:1016F000A45D030035336B41506A0300205F030093
:101700002DE9F24F2DED048B84B004469FEDE58A60
:10171000DFEDE48A9FEDE39ADFF8405BE888ADF8FF
:101720000800A888ADF8020028898DF8000000277D
:101730003E462046FFF718FF01902046FFF76EFF58
:101740008246DFF888873046C8F85400C8F8580049
:10175000D8F86800DFF8089BD9F8141900EE101AC1
:10176000D4ED000A30EEC01A01EE900AF8EEE11A4C
:1017700021EE211AB5EE401AF1EE10FA1ED598EDC1
:101780001D1A70EE411AF5EE401AF1EE10FA01DC66
:1017900071EE401A9FEDC41AF4EE411AF1EE10FA00
:1017A00007DB296F491C2967D8F85C10491CC8F869
:1017B0005C1088ED1D0A4042C8F8680009F6141054
:1017C00090ED010AD8F86C1094ED011A31EE401A30
:1017D00001EE901AF8EEE11A21EE211AB5EE401A48
:1017E000F1EE10FA1ED598ED1E1A70EE411AF5EEC4
:1017F000401AF1EE10FA01DC71EE401A9FEDAA1AC0
:10180000F4EE411AF1EE10FA07DB2A6F521C2A6738
:10181000D8F86020521CC8F8602088ED1E0A4942A2
:10182000C8F86C1090ED020AD8F8700094ED021A16
:1018300031EE401A01EE900AF8EEE11A21EE211A7B
:10184000B5EE401AF1EE10FA1ED598ED1F1A70EEA3
:10185000411AF5EE401AF1EE10FA01DC71EE401A71
:101860009FED911AF4EE411AF1EE10FA07DB296FA1
:10187000491C2967D8F86410491CC8F8641088ED21
:101880001F0A4042C8F8700098F80000052809D1E6
:101890000120C8F84000304688F80000A8F802008F
:1018A000A8F80400D8F84C0008990818C8F84C00AB
:1018B000D8F83400D8F84410884202D10120C8F882
:1018C0004000D8F8380000EB400109EB810B0BF623
:1018D000C000C0ED000A61684160A168816008999C
:1018E000204600F029FA68610198012802D0BAF177
:1018F000010F32D19FED6B0ADBF8C00800EE900AB1
:1019000060EEA00ADBF8C40801EE100A21EE011A0D
:10191000DBF8C80801EE900A61EEA11ADFF844096D
:10192000017B322904DAC17B322901DA30EE800AE8
:10193000417B322904DA017C322901DA30EE010AD6
:10194000817B322904DA407C322801DA30EE210A28
:1019500000F094FCF0EE409A37E00BF50C60D0ED0F
:10196000020A90ED011ADBF8C00800EE100A20EE22
:10197000000A01EE010A00EEA00A00F07FFCF0EE82
:10198000409AD4ED010A94ED000A20EE000A00EE20
:10199000A00A00F073FCB0EE408AD4ED020A94ED88
:1019A000010A20EE000A00EEA00A00F067FCF0EE4B
:1019B000408AD4ED020A94ED000A20EE000A00EEFF
:1019C000A00A00F05BFCB0EE409AD8F83C0000287A
:1019D0002ED130460CE009EB8001C1ED159A09EBE0
:1019E000800282ED008AC1ED078A81ED0E9A401CCB
:1019F0000728F0DBB1EE0C0A69EE800AC8ED090A8F
:101A0000D8F80C00C8F81800D8F81000C8F81C0066
:101A1000D8F81400C8F8200068EE000AC8ED030AE0
:101A200068EE800AC8ED040A29EE000A88ED050A6E
:101A3000D8F8380009EB800191ED150A39EEC00A9B
:101A4000D8ED090A30EE200A88ED090AC1ED159A91
:101A5000D8F8340009EB800080ED230AD8ED0B0A9A
:101A600070EE800AC8ED0B0AD8F80C20C8F81820D0
:101A7000D8F81020C8F81C20D8F81420C8F8202066
:101A8000D8F8382009EB820282ED008AC1ED078A7E
:101A900081ED0E9A3246DFED030A9FED021ADFED6B
:101AA000011A12E000000000CECC4C3E09EB82038C
:101AB00093ED002A70EE820A93ED072A31EE021AA6
:101AC00093ED0E2A71EE821A521C072AEEDBC8ED46
:101AD000030A88ED041AC8ED051AD1ED1C0A70EE50
:101AE000600A00F27442C2ED000A81ED1C0A98ED12
:101AF0000C0AD0F8741400EE901A30EE200A88ED2B
:101B00000C0A09F6141194EC030A81EC030ADFF8BD
:101B10005417096F01290AD10120C8F84000304646
:101B200088F80000A8F80200A8F804007EE0D8F8C1
:101B30005010491CC8F8501098F80020012A01D014
:101B4000032A3AD102292BD2EA8D042A28DAE96C39
:101B500000296BD198ED0A0ADFEDDA0AB4EE600ACB
:101B6000F1EE10FA08D5D0F8741401EE101AB4EEA4
:101B7000601AF1EE10FA0FDAF9EE0C0AB4EE600A10
:101B8000F1EE10FA52DBD0F8740400EE100AB4EE55
:101B9000600AF1EE10FA49D50120C8F8400045E08E
:101BA00027290AD3B8F80220002A03D011FA82F1BB
:101BB0004B2902D30121C8F84010D0F8740400EE7C
:101BC000900A98ED0A0A00F083F998F800000128BD
:101BD0002CD1B8F80200002828D0B8F80410002949
:101BE00024D0032211FA80F03D2802DB0120C8F83E
:101BF0004000E88D042800DB0222B8F8060082428B
:101C000002D20120C8F840003046C8F86400C8F885
:101C10006000C8F85C00FEF7FBFA0746286F6867AB
:101C200030462867A8F80400A8F80600D8F8340061
:101C3000D8F84810401AFA30FA242146B0FBF1F1E6
:101C400004FB1100B8F80A10884201D100F031FA03
:101C5000D8F83400D8F84810401AFA302146B0FBC2
:101C6000F1F104FB1100642801D100F063FAE88867
:101C7000BDF80810814204D1BDF80210AA88914233
:101C800000D00126002814D0D8F83400D8F8481025
:101C9000401AFA302146B0FBF1F104FB1101322960
:101CA00002D10120288116E04B2914D1002028817F
:101CB00011E0A88800280ED0D8F83400D8F84810D1
:101CC000401AFA302146B0FBF1F104FB11007D28E7
:101CD00001D1012028819DF800002989884200D087
:101CE0000126D8F8340009EB8001D1F87414C8F843
:101CF0002810401CC8F83400FA2802D10020C8F887
:101D00003400D8F83800401CC8F83800072802D141
:101D10000020C8F83800D8F83C00401CC8F83C0047
:101D200047EA0600401E8041C043C00F04B0BDEC2E
:101D3000048BBDE8F28F000030B4DFF8243590ED5D
:101D4000000AD3F8142900EE902A30EE600A03F658
:101D50001412D0ED010A92ED011A70EEC10A90ED55
:101D6000021AD2ED021A31EE611AB5EE400AF1EE16
:101D700010FA02DDF0EE401A01E0F1EE401AF5EE45
:101D8000400AF1EE10FA02DDB0EE602A01E0B1EE99
:101D9000602AB5EE401AF1EE10FA02DDF0EE412AAB
:101DA00001E0F1EE412A71EE821A71EEA21AB5EE4F
:101DB000400AF1EE10FA01DCB1EE400ADFF8A404AB
:101DC00090ED072A32EE000A80ED070AF5EE400A90
:101DD000F1EE10FA01DCF1EE600A90ED080A30EE47
:101DE000200A80ED080AB5EE401AF1EE10FA01DC87
:101DF000B1EE411A90ED090A30EE010A80ED090AB0
:101E000090ED0A0A30EE210A80ED0A0A2F4AD46BBF
:101E1000002C12D1002406E003EB850505F67C05B5
:101E2000C5ED001A641CA4B225460F2DF4DBB2EEFA
:101E30000E0A21EE800A80ED150A148903EB840353
:101E4000D3F87C5800EE105A31EEC00AD0ED150AD6
:101E500030EE200A80ED150A03F67C03C3ED001A6C
:101E6000F2EE0E0A80EE200ADFF8F03383ED1B0A53
:101E7000D0ED170AB4EE600AF1EE10FA01D580ED4C
:101E8000170AD0ED180AF4EE400AF1EE10FA01D567
:101E900080ED180ADFEDA50AB4EE600AF1EE10FA43
:101EA00003D5836DC918816501E000218165611C3E
:101EB000118189B20F2901D100211181806D30BCBF
:101EC000704700000100E040A4600300245D0300AF
:101ED0009FED971ADFF88403C08D042801DBB0EE74
:101EE000001ADFF88403B5EE400AF1EE10FA07DBC2
:101EF000F5EE400AF1EE10FA02D5C188491CC18006
:101F00000178002905D0022960D02DD3032976D08D
:101F1000B0E0F1EE0C1A31EE211AB4EE401AF1EEF7
:101F200010FA0BDBB4EE601AF1EE10FA06D5016D73
:101F30001029C0F08F80002101658BE0416BDFF834
:101F4000202302EB8101D1F8741401EE901ADFF81E
:101F50001C1391ED010AF4EE401AF1EE10FA40F173
:101F60008980C1ED011A85E0416BDFF8F42202EBB4
:101F70008101D1F8741401EE901ADFF8F01291ED9E
:101F8000002AB4EE612AF1EE10FA01D5C1ED001A73
:101F9000F7EE001AB4EE610AF1EE10FA6ADBB7EE62
:101FA000000AF4EE400AF1EE10FA63D5016D4180AB
:101FB00000210165B9EE0C0A30EE410AF4EE400A48
:101FC000F1EE10FA10D40221017053E0F9EE0C1A70
:101FD00031EEC11AB4EE410AF1EE10FA4ADBF4EE2A
:101FE000410AF1EE10FA45D5032101709C49426B7C
:101FF00001EB8201D1F874149C4A51603AE0416BC4
:10200000974A02EB8101D1F8741401EE901A9749B6
:1020100091ED012AF4EE421AF1EE10FA01D5C1ED6C
:10202000011ADFED7B1AB4EE610AF1EE10FA21D548
:10203000F4EE610AF1EE10FA1CDB016D81800021E3
:102040000165B1EE0C0A31EE000AB4EE600AF1EE61
:1020500010FA0ED50121017084490A6842654A6868
:1020600082657F4A436B02EB8302D2F874240A60D4
:1020700000E0017000787047002803D077492C22D7
:1020800000F056B97047002806D0764942684A6089
:1020900002680A60007A0872704780B5002801D192
:1020A000002002BD54220146714800F041F9012090
:1020B00002BD10B5694CE08DA18D002904D0002827
:1020C00002D00020208106E0084302D001202081B8
:1020D00001E0022020810020E0646062A061A08015
:1020E000A08520636065A06502464021614800F03C
:1020F000E1F8E06F012801D1FEF744FD5948818ADB
:10210000002909D0E28E8A4201D2A18600E0A2868F
:10211000002181820846A067A06F012801D1E08ECE
:10212000A0860020A06710BD00000000EC51383EE2
:102130000000000010B5494CE08DA18D002904D0AD
:10214000002802D00020208106E0084302D00120B0
:10215000208101E00220208100206062A061E085F2
:10216000E08002460821444800F0A4F800202063E3
:10217000E06F012801D1FEF705FDA06F012801D114
:10218000E08EA08610BD80B5012036490867FFF7B4
:10219000D1FFFFF78EFFBDE8014003E00020314989
:1021A000086770472F48008B2C49898E814200D2E6
:1021B00000E070472949CA6C8B8E9A4203D2888608
:1021C0000020886770472749888270472348C16C80
:1021D000002904D1018E408E10FA81F07047002052
:1021E000704701460020002902D0012901D0704724
:1021F00002E01A48C06C70471848818EC26C891A78
:10220000028E891A408E081A00D5002070470000FF
:10221000FEFF7FBF38B504461348124D0F49012C0D
:1022200006D10622CA860C222A839622428105E024
:102230000722CA860F222A8364224281E88AA042AA
:1022400009D0888E082803DAC88EFFF7B3FF02E0B2
:10225000288BFFF7AFFFEC8231BD0000A45D0300C7
:10226000506A0300205F0300245D030070C2030076
:10227000A460030074BE03000873030081B08DEDF9
:10228000000A0098401000F1FE500090DDED000AB9
:10229000C0EE200A9DED001A70EE810ACDED000A15
:1022A000B5EE001ADDED001A80EE210A00EE810A7B
:1022B00001B0704762F30F2262F31F4200B500BF06
:1022C000130096469446103928BFA0E80C50FAD85F
:1022D0005FEA417C28BF0CC048BF40F8042BC90707
:1022E00028BF20F8022B48BF00F8012B00BD50F892
:1022F000041B61B150F8042BD30744BFA9F10103BB
:102300009A180023091F42F8043BFAD1EFE77047FF
:1023100062B38B0708D0521E11F8013B00F8013B55
:1023200000F024808B07F6D1830740F0208000BFA7
:10233000103A07D330B4B1E83810103AA0E838109A
:10234000F9D230BC530724BFB1E80810A0E8081048
:1023500044BF51F8043B40F8043BD20724BF31F896
:10236000022B20F8022B44BF0B7803707047083A09
:1023700007D3B1E80810083A40F8043B40F804CB12
:10238000F7D25307E4E78268521C8260426832B198
:102390000268531C036011704168491E4160704718
:1023A0000022FFF78BBF000062F30F2262F31F428F
:1023B000401810F0030308D0C91A1FD3DB0748BF29
:1023C00000F8012D28BF20F8022D130030B4144668
:1023D0001546103928BF20E93C00FAD8490728BF24
:1023E00020E90C0048BF40F8042D890028BF20F8E0
:1023F000022D48BF00F8012D30BC7047C91818BF26
:1024000000F8012DCB0728BF00F8012D7047000010
:1024100038B505460C46224629460FF2280001F041
:102420004DFEDFF8602D2046002102EBC503C3E915
:102430007801B2F820020121A9400843A2F8200245
:1024400031BD0000416C61726D5F4164642025758F
:102450003A25750010B5044621460FF2240001F01C
:102460002DFE0120A040DFF81C1DB1F82022824380
:10247000A1F8202201F508714A881043488010BD58
:10248000416C61726D5F57616B65757020257500D9
:1024900010B5044621460FF2340001F00FFEDFF8BC
:1024A000E40C0022134600EBC401C1E978230121AA
:1024B000A140C943B0F820220A40A0F8202200F52C
:1024C000087042881140418010BD0000416C61726B
:1024D0006D5F52656D6F766520257500DFF81C0D08
:1024E0000188491C018089B2322900DA704710B591
:1024F000002101800C4619E0DFF8880CB0F82012AA
:102500000122A240114210D000EBC400D0E9782390
:10251000521E63F10003C0E97823002B05DC01DBC8
:10252000012A02D22046FFF795FF641C082CE3DB4A
:1025300010BD80B50FF2340001F0C0FDDFF8440C8F
:10254000012180F87010703000210174C1603C21BD
:10255000416000218160012101754FF0FF31C161AF
:102560000021416201620121417501BD47465F4979
:102570006E69740A000000002DE9F041DFF89C5DEF
:102580002878DFF8004C022803D1052084F8700079
:102590000AE0032803D1062084F8700004E0042830
:1025A00002D1072084F8700094F87000801E05287E
:1025B00000F2B980DFE800F003B71B3E83A994F86E
:1025C0002002C0070AD594F82202C00740F1AB8070
:1025D00000F08DF90020BDE8F04159E700F024FB40
:1025E00004F1700041680020BDE8F04110E7DFF819
:1025F000B87D388A401C388280B23228C0F293807D
:1026000000F094F804F17006707D022801D100F00A
:1026100049F9706801280ADAB068012802DBF0691C
:10262000002804D14FF0FF30F06100F060F9002085
:10263000388278E0287E04F17006012804D1012058
:1026400070753C20706004E0022802D14FF496704F
:1026500070600020287704F19C01281D00F09DF98E
:10266000287F002817D004F11808DFF83C7DD8F83F
:102670003000387002F021FED8F84C10401A4FF4A8
:102680007A71B0FBF1F07870D4E90601C7E9020174
:10269000072002F01EF80120307584F89800287E8B
:1026A000012801D0032805D10121B068BDE8F0411F
:1026B00000F0FCBB0521B068BDE8F041F6E304F191
:1026C0007006307D00280BD0002030753C207060F3
:1026D00001460020FFF79CFE022084F8700022E0F3
:1026E0000220707500F0B0FF002803D1032084F8A9
:1026F000700018E0012816D00020B0604FF49670EA
:102700007060042084F870000DE004F170064FF44E
:10271000967070600020B0604FF49671FFF778FEFD
:10272000022084F87000BDE8F0810000F8B5DFF801
:10273000347DFE68DFF84C4A04F17405787801288E
:1027400035D102F0BAFD2862B87802281DDA387E49
:1027500000282ED094F8710001282AD097ED070A9E
:10276000DFEDC40A30EE200A87ED070AF7EE000A13
:10277000B4EE600AF1EE10FA1BDB761CFFEE000AE5
:1027800030EE200A87ED070A13E012D1387E0028C8
:102790000AD094F87100012806D00FF2B80001F0B9
:1027A0008DFC0020686060670020387601E0012021
:1027B000387694F89800002824D0787804280FD12F
:1027C00095ED010AB8EEC00ADFEDAB0A80EE200AF3
:1027D000BDEEC00A85ED060A002084F8980016E0D8
:1027E000052814D195ED010AB8EEC00ADFEDD60A2E
:1027F00080EE200ABDEEC00A85ED060A002084F8AE
:10280000980004E0A869012801DB401EA8617878DF
:10281000042805D1B87A002802D002F04EFDE86104
:102820006868012808DB012E02DB801B686003E07A
:10283000002E01D500206860606F012801DB401E7A
:1028400060676A68616F0FF23800BDE8F84001F018
:1028500035BC000047465F41525F54205374617499
:10286000696F6E6172792048696768206D696E5F73
:1028700074206D696E5F64205265736574210A006F
:1028800047465F41525F547261636B696E67206DAA
:10289000696E5F743A25642C206D696E5F643A2519
:1028A000640A0000DFF8DC0800F178010A69002AF8
:1028B0001CD0012A03D10022826710460861DFF88C
:1028C000A40B4278012A0FD18278022A06DA407ED0
:1028D00000280BD00869401E0861704706D100220D
:1028E000427610460861704701214176704770B505
:1028F00000240FF2480001F0E1FBDFF86C5B95F873
:102900008500012808D0DFF8146AB078002808D0C4
:1029100000F020F8002804D0012000F095FE0446C5
:1029200006E0F078002803D0022000F08DFE044677
:10293000002C02D1032085F8700070BD47465F521D
:102940006571756573745F4C6F636174696F6E0A4E
:102950000000000010B5DFF80C4B607804280AD1A5
:1029600002F0ABFCDFF8001BD1F89010401A44F6DF
:10297000206188420DD2607801280CD002F09DFCC5
:10298000DFF8E41AD1F89410401A4EF6602188421C
:1029900001D3012010BD002010BD2DE9F8432DED1D
:1029A000028B82B006460C46DFF8BC5A6FF000403E
:1029B000A867002713E030EE480AD5ED1E0AF8EEAE
:1029C000E00AB4EE600AF1EE10FA07D5BDEEC00AD7
:1029D00085ED1E0A38F80400A5F882007F1C0A2F36
:1029E00030DA4FEA471808EB040999F8020000288A
:1029F000F4D0D9ED021A99ED011AD6ED010A96ED3F
:102A0000000A02F05FF9B0EE408A384680B200F06A
:102A10004BF818EE100A02F073FCCDE90001D9F86A
:102A2000182039460FF2540001F048FB99ED060AD0
:102A3000B8EE400AB4EE480AF1EE10FABBD538EE13
:102A4000400ABAE7022085F8710000200BE004EB91
:102A500040118A78002A05D0097F012902D101217D
:102A600085F87110401C0A28F1DB02B0BDEC028B26
:102A7000BDE8F1831F852B3FCDCC5C4147465F55B8
:102A800070646174655F44697374616E6365206925
:102A9000643A2564207261646975733A2564206420
:102AA0006973743A25660A0038B5DFF8D81601EB69
:102AB0004010B0F89C4000F19C05D5ED060AF8EEF8
:102AC000600A287F002803D002282BD011D331BD03
:102AD000F4EE400AF1EE10FA29D521460FF26C000F
:102AE00001F0ECFA0220287701462046BDE8344088
:102AF0003AE0DFF8280890ED051AB8EE411A71EEB9
:102B0000200AF4EE400AF1EE10FA1CD502202877D4
:102B100021460FF2380001F0D1FA02212046BDE82B
:102B2000344021E0B4EE600AF1EE10FA0BD52146F4
:102B30000FF2240001F0C2FA012028770146204656
:102B4000BDE8344010E031BDCDCCDC4069642025C7
:102B50006420455849540A00696420256420454E84
:102B60005445520A000000007CB504460D462A4632
:102B700021460FF2700001F0A1FADFF8A067B068FB
:102B800002F0BEFBCDE90001706802F0B9FB02461D
:102B90000B460FF2700001F091FADFF8280D048067
:102BA00085709FEDB50AD6ED010A60EE800AFDEE54
:102BB000E00AC0ED010AD6ED020A20EE800ABDEE61
:102BC000C00A80ED020A7169C160032001F081FD35
:102BD0000120307722462946042002B0BDE870402B
:102BE00000F0CBBF47465F4465746563745F436123
:102BF0006C6C6261636B2069642025643A202564F3
:102C00000000000047465F4465746563745F43617C
:102C10006C6C6261636B206C61743A202566206C79
:102C20006F6E3A2025660000DFF8580590F8851091
:102C3000012902D13C21416770474FF496714167E9
:102C4000704700002DE9F8432DED028B054608EE94
:102C5000101A08EE902A1E464FF0FF3729460FF251
:102C6000341001F02BFADFF81C850A9C98F87000EC
:102C700001280DD108F170004470002000F02BFFF6
:102C8000012002F015F8002108F1280001F0D1FF21
:102C90004FF000090FE017F1010F16D14F463FB278
:102CA0008078002805D0B1F89C100FF2F80001F0F0
:102CB00005FA09F10109B9F10A0F0CDA08EB49111B
:102CC00001F19C008278002AE5D0B1F89C20AA424C
:102CD000E6D102205AE008F1700999F810000A289C
:102CE00001D1042052E017F1010F01D108204DE07D
:102CF00008EB4710A0F89C509C30B8EEC80ADFEDF6
:102D00005E0A80EE200A80ED010AB8EEE80A80EE45
:102D1000200A80ED020A866104770121817099F80A
:102D20001000401C89F810000020FFF7B1FB002CB8
:102D300003D1002089F8010008E0012C06D199F8A0
:102D40000100002802D0012089F8010098F87000E5
:102D5000002801D1072019E0022088F87000DFF870
:102D6000BC058078002810D099F8150001280CD1F6
:102D700099F80100002808D1012000F065FC03202B
:102D800088F87000012089F814000020BDEC028B47
:102D9000BDE8F28347465F416464204944202564CE
:102DA0000A00000047465F416464204944202564CE
:102DB0002069732072756E6E696E670A00000000EC
:102DC0002DE9F041064631460FF2B00001F076F9E8
:102DD0004FF0FF37DFF8AC4304F170050220687054
:102DE0004FF0000814E001F19C008278002A04D022
:102DF000027F012A01D101226A708078002805D063
:102E0000B1F89C100FF2880001F058F908F10108A0
:102E1000B8F10A0F07DA04EB4811B1F89C00B04290
:102E2000E1D14746F2E73FB217F1010F21D0287CEC
:102E3000401E287404EB4710002180F89E100A46BB
:102E400020219C30FFF7B0FA287C00280FD1012008
:102E500084F870000020FFF71BFB002000F05BFEF1
:102E600000F026FC002001F023FFFFF762FB0020AA
:102E700000E00320BDE8F0818096184B47465F5282
:102E8000656D6F76652049442025640A00000000C6
:102E900047465F52656D6F76652049442025642062
:102EA00069732072756E6E696E670A00F8B5044624
:102EB0000D462E4622460FF2840001F0FFF8B14F76
:102EC00097F87000012801D10520F2BD032801D137
:102ED00000F0EEFB0020FFF7DBFA042087F870001B
:102EE00007F170008460417D022904D0DFF82C14C2
:102EF0008978002915D1C6EB06118900416040F29E
:102F0000DC518C4202D2002181610FE00A21B4FB26
:102F1000F1F18161B1F5967F08D24FF4967181612C
:102F200004E03C214160012087F8980022462946B0
:102F3000052000F022FE0020F2BD000047465F534E
:102F4000746172745F4152206D696E5F743A2564DA
:102F5000206D696E5F643A25640A000080B50FF247
:102F6000180001F0ABF8002000F0D5FD0120DFF8DB
:102F7000F81481F8700001BD47465F53746F705FAD
:102F800041520A0010B5044621460FF2580001F0E4
:102F900095F87C4890F8701000290DD0002180F839
:102FA00070100846FFF774FA002000F0B4FD00F03E
:102FB0007FFB002001F07CFE012C06D1D7488178F0
:102FC000002908D00021817009E0032C07D1D348E3
:102FD000C178002901D1072010BD0021C170002057
:102FE00010BD000047465F5061757365203A256447
:102FF0000A00000038B5054629460FF2DC0001F052
:103000005DF8604C94F87000002801D0062032BDB5
:10301000022D2ED1C14801218170C078002859D0DD
:10302000002000F058FD012001F042FE002104F1D3
:10303000280001F0FEFD04F17005287C002849D02D
:10304000012000F001FB032084F870000020FFF74E
:103050001FFA0120287500200A283BDA04EB4011F2
:1030600091F89E20002A02D0002281F8B820401C4E
:10307000F2E7042D2ED1A9480121C17080780028E3
:1030800028D0002000F027FD012001F011FE0021D2
:1030900004F1280001F0CDFD04F17005287C002822
:1030A00018D0022000F0D0FA032084F8700000202D
:1030B000FFF7EEF901202875002009E004EB40112C
:1030C00091F89E20002A02D0002281F8B820401CEE
:1030D0000A28F3DB002032BD47465F526573756DE9
:1030E00065203A25640A000070B506460D46144670
:1030F00023462A4631460FF2900000F0DFFF4FF0E2
:10310000FF31002008E01F4A02EB4012B2F89C2079
:10311000B24200D10146401C0A28F4DB09B211F189
:10312000010F17D0174800EB4111C1F8B450B4316A
:103130000A79002A08D190F88520022A04D0DFF805
:10314000902B9278002A00D10C71022180F8711026
:10315000002113E00FF2540000F0B0FF032070BD17
:1031600000EB411292F89E30002B06D092F8B82066
:10317000012A02D1012280F87120491C0A29EFDBC3
:10318000002070BD209E030047465F557064617447
:10319000652049443A2564205261643A25642053ED
:1031A00074617475733A25640A00000047435F55E3
:1031B00070646174655F4552524F520A000000000E
:1031C000002001460FE002EB411292F89E30002BE6
:1031D00008D0B2F89C20DFF8FC3A00B203EB4003C1
:1031E0005A80401C491CA04A0A29ECDB92F8800056
:1031F000DFF8E01A08700A2001F06BBAD6BF0300AE
:103200002DE9F0412DED048B044608EE101A08EE6E
:10321000902A09EE103AFF259248066902F04DF80F
:103220000746B8EEC88AF8EEE88ADFF8A48AF0EE1E
:10323000681AB0EE481AD8ED020A98ED010A01F0BA
:1032400041FD022C26D119EE100AB0F5FA7F16D9ED
:10325000F8EE490A30EE800AD8F814003018D8F891
:103260001010401A00EE900AF8EE600AF4EE400AE0
:10327000F1EE10FA01DB00250CE001250AE088EDF3
:10328000018AC8ED028AC8F80C70C8F8106088ED91
:10329000059A02252846BDEC048BBDE8F08110B5E7
:1032A0000FF6582000F00AFFDFF82C4A207A002899
:1032B0000DD10FF6602000F001FF01F0FEFFE0608D
:1032C000012020720220BDE8104000F004BC10BDB7
:1032D00080B50FF65C2000F0F1FEDFF8FC0900215C
:1032E0000172C16001610120BDE8024001F09ABF96
:1032F00080B50FF6482000F0E1FE002001F092FFBB
:10330000DFF8D409017A012906D1002101720220D7
:10331000BDE8024000F0FFBB01BD0000D8BC0300C7
:1033200038B5DFF8B449A08A401CA08280B23228A8
:1033300028DB0020A0820FF6102000F0BFFE494DD0
:103340006A6829690FF6102000F0B8FE206900288D
:1033500005D1296921610FF6282000F0AFFE6868C9
:10336000E168401A29692269891AC92903D3DFF85B
:103370006C19884203D2DFF86819884202D3BDE88D
:10338000314000E031BD80B50FF6142000F096FE0C
:1033900001F090FF022000F0BEFBDFF83C090021A5
:1033A000C1600161017201BD98C10300014601299C
:1033B0000CDBDFF8242901231370012903DA00F262
:1033C00062205080704740F25920508070470000C2
:1033D00038B52DED028BDFF80049E08A401CE08211
:1033E00080B232283BDB0020E082A088411CA18013
:1033F0006288904204D3BDEC028BBDE8314035E0D9
:1034000089B20A292BDBA079002807D101F0F3FB50
:103410000120A0716288014600F0AFFB02F0ECF8D9
:10342000054695F83C0020839FEDD48BD5E9002319
:1034300051EC180B02F076F902F05CFAE061D5E984
:10344000022351EC180B02F06DF902F053FA2062DE
:103450000420BDEC028BBDE8324001F03AB9BDEC6E
:10346000028B31BD10680300209E030010B5DFF809
:103470006848207801280CD1002020706080A0804E
:10348000A07101F0C7FB628802210120BDE8104055
:1034900073E310BD00206B49C86202461021DFF8BB
:1034A0004408FEF707BF2DE9F04385B004460F46F8
:1034B00015462E4633463A4621460FF6FC0000F0EC
:1034C000FDFD012C57D1012F55D1DFF81C080769EC
:1034D000DFF8FC87DFF80C9899F80000002807D186
:1034E00089F8005031460FF6F00000F0E7FD40E0AB
:1034F000D8F82C2039460FF6041000F0DFFDD8F87C
:103500002C00381AA9F80200B9F80600B9F808101A
:103510000818B9F80A100818B9F80C100818B9F802
:103520000E100818A9F80400082001F0D2F8B9F824
:103530000E000390B9F80C000290B9F80A0001904F
:10354000B9F808000090B9F80630B9F80420B9F8C5
:1035500002100FF6D00000F0B1FD00221021484605
:10356000FEF7A8FE89F8005031460FF6081000F06B
:10357000A5FDC8F82C70DFF85887B8F8280001219D
:10358000A1400843A8F8280005B0BDE8F0837047C3
:10359000DFF83C07818C491C818489B2322900DA2A
:1035A000704710B500218184048DA00701D500F07B
:1035B00006F8600702D5BDE81040E8E710BDDFF867
:1035C00028074078012805D1DFF81807C188491C71
:1035D000C1807047022805D1DFF808070189491C1E
:1035E00001817047032805D1DFF8F8064189491C9D
:1035F00041817047042805D1DFF8E8068189491C1C
:1036000081817047052804D1DFF8D806C189491C9B
:10361000C18170470000000080B50FF67C0000F00B
:103620004DFD08480021017001218170C1709FED9E
:10363000C30A80ED010A80ED020A00210161012127
:10364000017601BDD8BC030010B58E4C217800294D
:1036500005D00FF6500000F031FD012010BD01280B
:103660000ED1A17800290BD0012060700FF65C000C
:1036700000F024FD00F008F901202070002010BDAA
:10368000E27802280DD1002A0BD0022060700FF6DC
:10369000580000F013FD00F0B0F901202070002068
:1036A00010BDA1780FF65C0000F008FD012010BDF0
:1036B00010B5DFF838060078002801D000F004F9D2
:1036C000704C94F82000002801D000F0ACF90020E4
:1036D000207010BD30B583B00C466A4D85ED010AEF
:1036E000C5ED020A686101F0E8FDE860DFF8F80561
:1036F000006928612C760220287029690FF63400B1
:1037000000F0DCFCA86801F0FBFDCDE90001686871
:1037100001F0F6FD02460B460FF6380000F0CEFC35
:10372000E4B2012C06D100220321012003B0BDE840
:10373000304022E2022C06D100220721012003B0F2
:10374000BDE8304019E237BD10B5044621460FF6FA
:103750002C0000F0B3FC4B48012C07D10321017071
:10376000002205210120BDE8104006E2042101707D
:10377000002209210120BDE81040FEE10000000008
:10378000D012634110B5DFF86445A06E002801D166
:10379000002010BD01F091FDA16E401A4FF47A7126
:1037A000B0FBF1F010BD38B50446DFF8405528787D
:1037B00000280AD1012C15D100220421012000F09B
:1037C000DCF901F07AFDA8660CE001280AD1012C91
:1037D00008D0FFF7D7FF02460421012000F0CDF901
:1037E0000020A8662C7031BD10B5DFF800452078A8
:1037F000012807D194F82202C00641D50020BDE877
:103800001040D0E704F1480104F1080001F011FA7A
:1038100000F074F800280BD00121206AD4ED030ACF
:1038200094ED020AFFF756FF012084F8600010BDF6
:1038300094F82202C00623D52078022816D1A06C65
:10384000002808D100F040F80120FFF77DFF02209A
:1038500084F8600010BD0420FEF71AFE0A2104203F
:10386000FEF7D6FD0320BDE810409CE7032807D1F2
:1038700000F02AF80120FFF767FF032084F86000BA
:1038800010BD0000D8BC030010B5DFF860442178FB
:103890000FF2007000F012FC2078022811DA01F01B
:1038A000AAF90220FFF77FFF05210420FEF7B0FDF3
:1038B00001F003FD6066002201210846BDE81040CA
:1038C0005BE110BD18C2030010B5DFF82044217879
:1038D0000FF2D06000F0F2FB207802280DDB01F03F
:1038E00099F90020FFF75FFF0420FEF7D1FD0022C9
:1038F00002210120BDE810403FE110BD10B5DFF806
:10390000EC43D4E90623D4E90E018B4201D1824273
:1039100012D0002B01D1002A0ED00FF2986000F0D7
:10392000CDFBFFF7D1FF04F1280004F108012022AC
:10393000FEF7FEFC012010BD002010BD0000484332
:103940000FB410B584B00C980290079801F0D8FC21
:10395000CDE90001069801F0D3FC02460B460FF2B8
:103960006C6000F0ABFBDFF884432078002819D1AD
:1039700004F1080006A92022FEF7DAFCFFF7BEFFDB
:1039800000282AD002210420FEF742FD0120FFF783
:103990000AFF0321206AD4ED030A94ED020AFFF71F
:1039A00099FE1AE0012818D104F1080006A9202286
:1039B000FEF7BEFCFFF7A2FF00280ED00420FEF7A2
:1039C00067FD02210420FEF723FD0321206AD4EDC8
:1039D000030A94ED020AFFF77DFE1FBC5DF814FB9D
:1039E00080B5C24890F82202800605D500F01BF889
:1039F0000220BDE80240A7E601BD80B50FF2FC50F1
:103A000000F05CFB00220621012000F0B6F8052042
:103A100000F05FFE1E210520FEF7FAFC0120AC49F4
:103A200081F8200001BD80B50FF2E05000F046FBA8
:103A30000520FEF72DFD0020A54981F8200001BDDD
:103A400080B50FF2D45000F039FBA7480021018067
:103A5000016141618172C16001BD1CB5A24C608BE6
:103A6000401C608380B2322834DB0020608301AACE
:103A70000DF1010100A801F0ADF82069002802D085
:103A80000199081AE0600198206101F016FC60605D
:103A90006078002801D1216961619DF80010884299
:103AA00010D00121A172216962698A1A00EB80019C
:103AB0004800A1784118C9B2032000F05EF82069DF
:103AC000606101E00020A0729DF8000060709DF828
:103AD0000100A07013BD38B504460FF2485000F045
:103AE000EDFA814D28890121A140084328812878D9
:103AF000002809D10FF2385000F0E0FA01F050F838
:103B0000002802D00120287031BD0FF23450BDE8EA
:103B1000324000F0D3BA38B504460FF2385000F006
:103B2000CDFA714D28890121A1408843288109D10E
:103B30000FF22C5000F0C2FA01F03FF8002801D03B
:103B40000020287031BD694890F87000012803D129
:103B500061480078002802D05D48806C70470020E2
:103B600070476348704780B5002264216048FEF7C3
:103B7000A1FB00205649886401BDF8B507460E46F2
:103B80001446534DA86C5B2805D30FF2E440BDE802
:103B9000F24000F093BA01F090FBAA6C54495754DC
:103BA000521CAA645654521CAA64230E5354521C2D
:103BB000AA64230C5354521CAA64230A5354521C63
:103BC000AA645454521CAA64030E5354521CAA648F
:103BD000030C5354521CAA64030A5354521CAA6483
:103BE0005054501CA864F1BD70B5FEF777FC3F4DF2
:103BF0002878002801D0FFF7F7FD354C94F8200015
:103C0000002801D0FFF7ECFE37480078002801D0EB
:103C1000FFF723FF304E3078002801D0FFF7D8FBA4
:103C200095F87000022801DBFEF7A6FC307A002828
:103C300001D0FFF775FB208D002801D0FFF7A8FC0D
:103C40002078022801DB0020207070BD38B50FF20B
:103C50004C4000F033FA1E4C0020A064234D024675
:103C60004FF4B67105F17000FEF724FB0022082125
:103C70001948FEF71FFB00221C212046FEF71AFB05
:103C80000022202104F12800FEF714FB0022482125
:103C900005F5F070FEF70EFB002218211248FEF722
:103CA00009FB002270212846FEF704FB00220221B6
:103CB00004F12000FEF7FEFAFEF73BFCFFF7C0FE22
:103CC000FFF7AAFCBDE83140FFF7E4BB00000000AD
:103CD000D8BC030048C10300B4BE0300E193040054
:103CE00041771B0028C2030010680300209E0300D8
:103CF00074BC03000FF2B43000F0E0B94F44445FED
:103D00004F6E496E646F6F7243616C6C6261636B7E
:103D10000A00000068616E646C696E67204F6E492E
:103D20006E646F6F7243616C6C4261636B0A00007A
:103D30004F44445F496E69740A0000004F44445F79
:103D40004465696E69740A004F44445F50726F6342
:103D50006573730A000000004F44445F50726F6344
:103D6000657373206375725F6172642025642074CB
:103D7000696D657374616D70202564200A00000010
:103D80004F44445F50726F63657373207365742092
:103D900073746172745F6172642025640A000000AC
:103DA0004F44445F4F6E4465746563744F7574642B
:103DB0006F6F720A000000004269675F44617461BE
:103DC0005F436D645F48616E646C6572202564209A
:103DD00025642025640A00004269675F44617461BC
:103DE0005F436D645F48616E646C657220537461FB
:103DF00072742069643A25640A0000004269675FB2
:103E0000446174615F436D645F48616E646C6572A8
:103E1000206375725F643A257520696E695F643A44
:103E200025750A004269675F446174615F436D6490
:103E30005F48616E646C65722053746F70206469B2
:103E400073743A256420746F74616C5F74696D6576
:103E50003A25642073743A25642077613A256420FA
:103E600072753A25642076653A25642063793A258F
:103E7000640A00004269675F446174615F436D6476
:103E80005F48616E646C657220537461727420695E
:103E9000643A256421210A004C4D5F496E69740A19
:103EA000000000004C4D5F526571756573745F4C86
:103EB0006F636174696F6E20616C726561647920F3
:103EC00072756E6E696E670A000000004C4D5F529D
:103ED0006571756573745F4C6F636174696F6E2093
:103EE0004750530A000000004C4D5F5265717565E4
:103EF00073745F4C6F636174696F6E204E4C500A2F
:103F0000000000004C4D5F526571756573745F4C25
:103F10006F636174696F6E2073657474696E672076
:103F20006F666620475053202564204E4C50202554
:103F3000640A00004C4D5F4C6F636174696F6E5F83
:103F400046697865642061725F64697374202564D2
:103F50000A0000004C4D5F4C6F636174696F6E5FC7
:103F60004669786564206C6174203A2025662C20AF
:103F70006C6F6E203A2025660A0000004C4D5F4CA5
:103F80006F636174696F6E5F54696D656F757420DE
:103F900025750A004750535F53746172742025647D
:103FA0000A0000004750535F53746F702025640A65
:103FB000000000004750535F4C6F635F46697865AF
:103FC00064203A20256C6C750A0000004750535F4E
:103FD000506173736976655F4342206C6174203A67
:103FE0002025662C206C6F6E203A2025662C2061DF
:103FF0006363203A2025750A000000004E4C505F94
:10400000526571756573740A000000004E4C505F74
:1040100053746F700A00000041525F496E69740A60
:104020000000000041525F53746172740A00000086
:1040300041525F53746172742052554E0A00000061
:1040400045203A4152204F70656E204661696C0AE6
:104050000000000041525F53746F700A00000000BE
:1040600041525F53746F702052554E0A0000000099
:10407000534C435F47465F5365745F44756D705F93
:10408000446174612054656D702064756D702069A1
:10409000732046756C6C21210A000000534C435F6D
:1040A00047465F496E69740A00000000534C435F45
:1040B00047465F4465696E69740A00000EB403B038
:1040C00070470020704738B5DFF8DC49257929466C
:1040D0000FF6F410FFF7F2FF002D0BD10120207135
:1040E0000FF6F810FFF7EAFF00F04DF9FFF7F0F8D0
:1040F0000120E071002032BD80B5FFF7FBFDFFF726
:10410000F7F80020DFF8A019087102BD70B5FFF7BD
:104110001AFD0546DFF890496089C0F57F76002DCD
:1041200032D0FFF71EFD206161890B19AE4216D215
:104130003246014603F11400FEF7EAF84FF47F70AF
:10414000A08100206081AA1B2069311804F11400AD
:10415000FEF7DEF860892818801B608112E02A468D
:10416000014603F11400FEF7D3F860892818608136
:10417000A18980B2814200D2A081B0F57F7F01D1B8
:1041800000206081FFF7EFFC01F049FC012805D118
:1041900094F90510002901D10221A1716071A07963
:1041A000022822D10025A689002E08E0314689B2D6
:1041B000284680B200F0F9F87519A089461B08D08E
:1041C000FB2EF3D3FA21284680B200F0EEF8FA3540
:1041D000F3E700224FF47F7104F11400FEF76AF850
:1041E0000120A07100206081A08170BD10B5DFF8B2
:1041F000B84800202081E079002804D0FF2000F09A
:1042000068FA0020E071FFF7EFFCFFF77FFF002066
:1042100010BD002070472DE9FC4105460E461746AB
:104220009846089C0194CDF800803B4632462946CA
:104230000FF6C000FFF742FF009443463A4631466E
:104240002846FEF7FFFCDFF860080221017000211C
:10425000417045800220BDE8F6413AE210B50446BF
:104260000FF6C400FFF72AFF2046FEF7A9FDDFF88E
:104270003808032101700021417044800220BDE80C
:10428000104026E280B5014601290AD1FEF77AFEE8
:10429000DFF81408042101700021417001214180E0
:1042A00025E002290AD1FEF7A5FEDFF8FC0704216C
:1042B0000170002141700221418018E003290AD1D8
:1042C000FEF760FEDFF8E007042101700021417075
:1042D000032141800BE0042909D1FEF78BFEDFF8B2
:1042E000C80704210170002141700421418002208F
:1042F000BDE80240EDE110B50446FEF7F5FEDFF83B
:10430000A807052101700021417044800220BDE80A
:104310001040DEE180B5FEF7C9FDDFF88C0707210C
:1043200001700021417041800220BDE80240D0E1CF
:1043300080B5FEF713FEDFF8700708210170002139
:10434000417041800220BDE80240C2E110B5DFF8B3
:104350005847FEF755FF60700A20207000206080EB
:104360000220BDE81040B4E110B50446FFF79BF809
:10437000DFF83407002141700C21017044800220D5
:10438000BDE81040A5E180B5DFF81C07012181716F
:104390000021418181810A464FF47F711430FDF77D
:1043A00089FFBDE80140FFF751BC70B586B00446F7
:1043B0000E46324621460FF2807001F01FFD0A20A2
:1043C00096FBF0F5ADB2B01DADF8000001A80FF2FC
:1043D000A8711422FDF7ACFFBDF80000C01CADF8B9
:1043E0000700DFF8C86601203070022200A9701CA7
:1043F000FDF78EFF0120F0703071372070710620BC
:10440000B0712846000AF0713572BDF80000C21E76
:10441000DFF89406201800F1140106F10900FDF7F9
:1044200077FF314601A801F0E7FD06B070BD00003E
:104430001CB514460021ADF80410102840F0F88097
:104440002078102840F0ED8094F90100401E0D28DE
:1044500000F2E780DFE800F0070B333B3F525D6B73
:104460006E84A6CAD0D3012000F033F9D9E0207CB5
:104470000090207B617B090401EB0060A17B00EBD5
:104480000120E17B4318207A617A090401EB006086
:10449000A17A00EB0120E17A4218207961790904C0
:1044A00001EB0060A17900EB0120E1794118A078CF
:1044B000E47814EB002080B2FFF7ADFEB1E0A07805
:1044C000E17811EB002080B2FFF7C8FEA9E0A078E8
:1044D000FFF7D8FEA5E0227A20796179090401EB83
:1044E0000060A17900EB0120E1794118A078E37820
:1044F00013EB002080B2FFF7FEFE92E0DFF8A80584
:1045000006214170002101704180022000F0E1F895
:1045100087E0A179A078E278120402EB00602279AA
:1045200000EB022062798018FFF7F4FE79E0FFF7D4
:10453000FFFE76E0A078012804D1F0210020FEF7EC
:10454000B5FC02E00846FEF7B1FCDFF85C05092186
:104550000170002141704180022000F0BAF860E053
:10456000E07A217B090401EB0060617B00EB012014
:10457000A17B4318E079217A090401EB0060617A9C
:1045800000EB0120A17A4218E0782179090401EBBF
:104590000060617900EB0120A1794118A078FFF754
:1045A000D5FE3EE094F9020001281BD10222E11C55
:1045B00001A8FDF7ADFEBDF80400BDF90410C1F37C
:1045C000072141EA0020ADF80400BDF90400FEF720
:1045D000EDFEDFF8D4040021417011210170BDF817
:1045E00004104180022000F074F81AE02279E1788A
:1045F000A078FFF7B9FE14E0FEF7E2FD11E0FFF747
:1046000057F8FFF7C0FEDFF8A0040E21017000216B
:10461000417041800FF24050FFF750FD022000F042
:1046200058F8DFF884048179032901D002218171CF
:10463000002016BDDFF87014098910FA81F0B0F57A
:10464000007F01D3012070470020704710B40B8811
:104650005C1C0C80140A1C540B885C1C0C801A54C3
:1046600010BC704710B40B885C1C0C8014161C54D2
:104670000B885C1C0C8014141C540B885C1C0C8074
:1046800014121C540B885C1C0C801A5410BC70470C
:104690002DE9F0430546884616461F464FF0380977
:1046A0000CE0601CA8F80000304639464A4601F08C
:1046B00027FD6055A9F108091FFA89F9B8F80040EB
:1046C00048460028EDD1601CA8F800006655BDE8FA
:1046D000F0832DE9F04786B00021ADF80010DFF837
:1046E000C84326893546012816D0022838D0032829
:1046F0005ED0042800F09280052800F0BA800728D8
:1047000000F0CF80082800F0F6800A2800F05281DF
:10471000FF2800F0388181E10820ADF80000FFF7A4
:1047200089FF002840F0AC81E14F0A20F055701C51
:104730002081062180B2C155401C2081012180B218
:10474000C155401C2081D7F8002204F108013846E9
:10475000FFF788FF20890A21C155401C20815DE1B7
:104760000720ADF80000FFF765FF002840F08881C2
:10477000CF4F0A20F055701C2081052180B2C15511
:10478000401C2081022180B2C155401C208121782B
:1047900080B2C155401C2081617880B2C155401C57
:1047A0002081628804F108013846FFF74FFF35E1A8
:1047B0001220ADF80000FFF73DFF002840F06081B7
:1047C000BB4F0A20F055701C2081102180B2C155CA
:1047D000401C2081032180B2C155401C2081B54E70
:1047E000328804F108013846FFF730FF2089B1789C
:1047F000C155401C2081726804F108013846FFF75A
:1048000031FFB26804F108013846FFF72BFFF26868
:1048100004F108013846FFF725FFFFE00D20ADF851
:104820000000FFF707FF002840F02A81A04F0A2070
:10483000F055701C20810B2180B2C155401C208195
:10484000042180B2C155401C20819B4E328804F166
:1048500008013846FFF7FAFE726804F1080138468D
:10486000FFF700FFB26804F108013846FFF7FAFECF
:10487000D4E00320ADF80000FFF7DCFE002840F094
:10488000FF808B4F0A20F055701C2081012180B2DF
:10489000C155401C2081052180B2C155401C20819A
:1048A000BCE00D20ADF80000FFF7C4FE002840F08A
:1048B000E7807F4F0A20F055701C20810B2180B2C9
:1048C000C155401C2081072180B2C155401C208168
:1048D0007A490A7880B2C255401C20814A7880B259
:1048E000C255401C2081D1E9022304F10801384659
:1048F000FFF7CEFE92E01220ADF80000FFF79AFE1F
:10490000002840F0BD806A4F0A20F055701C2081BD
:10491000102180B2C155401C2081082180B2C155B0
:10492000401C2081664E317880B2C155401C2081E8
:10493000728804F108013846FFF788FEB28804F156
:1049400008013846FFF782FEF28804F10801384674
:10495000FFF77CFE328904F108013846FFF776FE46
:10496000728904F108013846FFF770FEB28904F13C
:1049700008013846FFF76AFEF28904F1080138465B
:10498000FFF764FE4AE00320ADF80000FFF752FE97
:10499000002875D1464F0A20F055701C2081012156
:1049A00080B2C155401C2081FF2180B2C155401CFE
:1049B000208133E0DFF80C8198F800904FEA490A33
:1049C0000AF10400ADF80000BDF80000FFF732FE68
:1049D000002855D1364F0A20F055701C20810AF16D
:1049E000020180B2C155401C20810A2180B2C1550C
:1049F000401C208180B200F80790401C20810026D6
:104A000008E008EB4600428804F108013846FFF749
:104A10001DFE761C98F800008642F2DBA079032880
:104A200001D00220A0712089B0F5007F28DCBDF8FC
:104A30000000C01CADF8000001A80FF250111422B4
:104A4000FDF776FCBDF80000C01CADF80700174C60
:104A500001202070022200A9601CFDF759FC0120F2
:104A6000E070207137206071BDF80000C21E104850
:104A70002918A01DFDF74CFC214601A801F0BCFA45
:104A800006B0BDE8F087094901F58272C261602273
:104A9000027014228260012202730282002242828A
:104AA00041611046704700003C4C03006C55030008
:104AB0006853030018C20300CCBE030098C1030072
:104AC00028C2030048C10300736C6F636174696F8F
:104AD0006E5F73746172742025640A00537461728E
:104AE000745F534C6F636174696F6E436F726520BE
:104AF000310A0000534C435F47465F4164642049DC
:104B0000443A25642C206C61743A25642C206C6F27
:104B1000673A25642C207261643A25642C2064690C
:104B2000723A25640A000000534C435F47465F52C7
:104B3000656D6F76650A0000736C632053656E6463
:104B40004269674D53472073746172743A2564203B
:104B500073697A653A256400534C435F47465F4367
:104B60006C656172204572726F72436F6465203AA2
:104B70002025750A0000000005000000000000006C
:104B80000000000000000000000000000500000020
:104B90000000000000000000000000000000000015
:104BA00080B50022DFF8FC16432001F04CFB002802
:104BB00001D0002002BD012002BD80B50022DFF837
:104BC000E416432001F095FB002801D0002002BD2F
:104BD000012002BD7CB504460D46164600A802F031
:104BE0003FFA9DF8000020709DF80100287002F047
:104BF00048FA306073BD80B5682001F032FC014690
:104C000000208DF80000002903D000A8C969496878
:104C1000884701BD80B5682001F023FC01460020D3
:104C20008DF80000002903D000A8C969C968884729
:104C300001BD70B504460D4600F0DEFC0646D6E91F
:104C4000000102F0ADFB2060D6E9020102F0A8FBF2
:104C500060600020A060E060D6E90A01C4E90401B8
:104C6000306BA061002D02D096F83C00286070BD2A
:104C70000FB400B58DB002F093FB0490DDE9100194
:104C800002F08EFB0590002006900790DDE91801E8
:104C9000CDE908011A980A9004A984B06846202238
:104CA000FDF746FB0FBCFEF74BFE0DB05DF814FBA5
:104CB000002803D0DFF8F00500F0C0BB002000F0B2
:104CC000BDBB00002DE9704F2DED108B94B0B0EE00
:104CD000418A9FED73AA21EE8A1A00EECA1A8DED61
:104CE0000B1A00200A9020EE0A0A02F0A1FB9FEDA9
:104CF0006D9BF7EE000AF0EE608A10EE100A00F0ED
:104D0000FFFA53EC192B00F00DFD02F049FB00EE09
:104D1000100AF0EE680A02F03BFCF0EE408A28EE42
:104D20000A0A02F085FBF7EE000AB0EE608A10EE88
:104D3000100A00F0E5FA53EC192B00F0F3FC02F036
:104D40002FFB00EE100AF0EE480A02F021FCB0EE54
:104D5000408AB0EE680A02F052FC8DED090AB0EE0E
:104D6000480A02F04CFC8DED040AB0EE680A02F02D
:104D700049FC8DED080AB0EE480A02F043FC8DEDC7
:104D8000070A9DED090ADDED040A20EE200A8DEDEB
:104D9000060A9DED080ADDED070A20EE200A8DEDDA
:104DA000050A9FED3EEA9FED3DAA9DED0B8A002688
:104DB00000E0761C36B2142E80F21E828DED0C8A35
:104DC000B0EE480A02F01BFCF0EE409AB0EE480A42
:104DD00002F018FCB0EE409A9DED040A20EE090A9C
:104DE000DDED090A9DED071A60EE810A9DED081AB6
:104DF000DDED041A21EE211A41EE690A20EE000AC7
:104E000000EEA00AB5EE400AF1EE10FA0EDB10EE4D
:104E1000100A00F075FA41EC100B02F0F7FB51ECB0
:104E2000100B02F0BDFA08EE900A01E0DFED1B8ADC
:104E30009DED060A9DED058A00EE298AF0EE480AEE
:104E4000B0EE680A02F0A4FBB0EE40EAF5EE408A4C
:104E5000F1EE10FA02D1DFED11EA05E09DED060A50
:104E600020EE090AC0EE28EAB7EE00AA0EEEEEAA7E
:104E700018EE100A00F044FACDE912011AEE100AF9
:104E800000F03EFA41EC1B0B9FEDE49BB5EE40AA0F
:104E9000F1EE10FA0AD19FED01CA1CE000000000FB
:104EA00034FA8E3C000020B588E4EF3F059800F00E
:104EB00027FA53EC192B00F035FC53EC1B2B02F0B6
:104EC00025FC02460B46DDE9120102F043FD02F02B
:104ED00067FA0CEE100A9FEDD00A2AEE000A10EED7
:104EE000100A00F00DFA41EC1A0B0022D54B00F02D
:104EF00019FC04460D4651EC1A0B0022D24B00F06F
:104F000011FC02460B460020D04902F023FD024668
:104F10000B4651EC1A0B00F005FC0022CC4B02F0C2
:104F2000D9FD02460B4651EC1A0B00F0FBFB0022A8
:104F3000C84B02F0CFFD22462B4600F0F3FB0022C7
:104F4000D44B02F0C7FD02F02BFA0A9051EC1A0B79
:104F50000022C14B00F0E6FB04460D4651EC1A0B53
:104F60000022BE4B00F0DEFB02460B460020BC498F
:104F700002F0F0FC02460B4651EC1A0B00F0D2FB9B
:104F80000022B84B02F0A6FD02460B4651EC1A0B6C
:104F900000F0C8FB0022B44B02F09CFD22462B46D9
:104FA00000F0C0FB02F0FCF90FEE100A9FEDAFAB72
:104FB00051EC1B0B4FF06042AE4B00F0B3FB0446CC
:104FC0000D4651EC1B0B0022AB4B00F0ABFB024635
:104FD0000B4651EC1A0B02F0BDFC4FF06042AE4B99
:104FE00000F0A0FB53EC1A2B02F074FD22462B4676
:104FF00000F098FB02F0D4F90FEE900A2CEE0C0AA8
:1050000010EE100A00F07CF9CDE9100118EE900ABC
:1050100000F076F9CDE90E011FEE100A00F070F9EC
:10502000CDE902011CEE100A00F06AF941EC1B0BFD
:105030009FED92CB9FED93DB2FEE280A10EE100A26
:1050400000F05EF9CDE90001DDE9020100228F4B9D
:1050500000F068FB04460D46DDE9100153EC192B06
:1050600000F060FB53EC1D2B02F034FD02460B46B2
:10507000DDE9120100F056FB82468B46DDE90201B4
:105080000022834B02F042FB53EC1B2B00F04AFB47
:1050900080468946DDE90E2351EC1A0B00F042FBF5
:1050A000DDE90E2300F03EFB53EC1C2B02F012FD59
:1050B00042464B4600F036FB80468946DDE9102328
:1050C00051EC1A0B00F02EFB53EC1C2B02F002FDEE
:1050D00042464B4600F026FB02460B4650465946D8
:1050E00002F038FC22462B4600F01CFB02460B4621
:1050F00051EC1B0B02F0EEFCDDE9002300F012FB8B
:1051000002F04EF90AEE100A0B9800F0F9F8CDE91A
:1051100002011FEE900A00F0F3F802460B46002051
:105120005C4902F017FC4FF060425B4B00F0FAFA6A
:1051300004460D461EEE900A00F0E2F822462B4689
:1051400000F0F0FACDE900011EEE100A00F0D8F8E8
:10515000804689462FEEA80A10EE100A00F0D0F81B
:1051600004460D462FEE880A10EE100A00F0C8F82B
:1051700082468B4653EC1B2B51EC190B00F0D2FAF4
:1051800053EC1B2B00F0CEFA53EC1D2B02F0A2FCCB
:1051900052465B4600F0C6FA53EC1B2B02F09AFC19
:1051A00022462B4600F0BEFA42464B4602F092FCE5
:1051B000DDE9002300F0B6FADDE9022302F08AFC03
:1051C00002F0EEF808EE100AB5EE408AF1EE10FAA1
:1051D00002D19FED320A05E09DED0C0A38EE400A3F
:1051E00080EE080AB0EEC00ADFED2D0AB4EE600AC8
:1051F000F1EE10FA7FF5DDAD9DED0A0ADFED2B0A29
:1052000020EE200A7EEE4A0A20EE200A14B0BDEC01
:10521000108BBDE8708F000032D6DC3B0000000030
:105220000000004080B5002804D02148BDE80240BD
:1052300002F063BD002002F0A9FDBDE8014002F0CC
:105240006BBD00000000103F00E0654000007440AE
:10525000000088C00000B0400000503F0080474080
:1052600000805240000060C000007040000000005C
:10527000000010404A772B3F00000840000000006B
:10528000000008C0000000000000F0BF0000D03F98
:10529000000018400000F03F4A776B3F000000001C
:1052A000CDBC8C2B046A0300715C000021FEC14A56
:1052B0009F420000012002F07BBD00B583B00FF2D9
:1052C0003800D0E90023CDE9002300A800F00FFC4E
:1052D0009DF900004FF461619DF90120C2EB0213BA
:1052E0009A0011FB00209DF9021040FA81F04FF462
:1052F0007A7148430EBD000000000000000000006D
:105300005FF0FF0C1CEAD05114BF614506E0C110EC
:10531000400721F0E04101F16051704779B900F098
:10532000004100020AD0B0FA80FC00FA0CF001F152
:105330006051A1EB0C5101EBD021400570474102B7
:105340000CBF40F4E0016FF0000100207047000046
:1053500038B505460FF2CC2000F050FDA94C95ED74
:10536000000B84ED000B95ED020B84ED020B95ED27
:10537000040B84ED040B95ED060B84ED060B002069
:105380000146C4E90801D5E90A01C4E90A01286B0C
:10539000206300F095FBA06331BD38B50024994D22
:1053A000006885F83C0095F83C100FF2902000F062
:1053B00025FD95F83C1003E0401C8842FCDB641C92
:1053C000082C01DA2046F8E731BD70B596B08B4C59
:1053D00090ED000B84ED000B90ED020B84ED020BC1
:1053E00090ED040B84ED040B90ED060B84ED060BA1
:1053F00000221346C4E90823D0E90A23C4E90A239A
:10540000006B206300F05CFBA0637D4D6E68300094
:1054100007D0214684B068466822FCF789FF0FBC9C
:10542000B047AD68280007D0214684B0684668229E
:10543000FCF77EFF0FBCA84716B070BD38B505005D
:105440006F4C15D10FF2182000F0D8FC94F9000031
:10545000012823DB401E207040B2002804D1002028
:1054600002F085FC02F054FC00206060012032BD97
:105470000FF2042000F0C2FC94F90000002805D1CE
:10548000654802F037FC012002F071FC94F900003D
:10549000002803D4401C20706560E7E7002032BD7F
:1054A00038B50500564C15D10FF2E41000F0A6FCFB
:1054B00094F90000012823DB401E207040B2002830
:1054C00004D1002002F053FC02F022FC0020A06076
:1054D000012032BD0FF2D01000F090FC94F90000D2
:1054E000002805D14C4802F005FC012002F03FFCE9
:1054F00094F90000002803D4401C2070A560E7E761
:10550000002032BD10B50FF2B81000F077FC3D4C12
:10551000002268212046FCF7CDFE9FED3B0B84ED79
:10552000000B84ED020B00203949087010BD00000B
:1055300038B5374C94F9000000281BD1314D0022BA
:1055400068212846FCF7B6FE9FED2F0B85ED000B7A
:1055500085ED020B2F4802F0C7FB304802F0C7FB75
:10556000012002F0DDFB014694F900200FF26010EB
:1055700000F044FC94F90000002803D4401C207083
:10558000002032BD032032BD38B5214C94F9001003
:105590000FF25C1000F032FC94F90000012814DBDB
:1055A000401E207040B200280DD102F0D6FB054607
:1055B00002F0A6FB02F0A8FB94F9002029460FF2A6
:1055C000441000F01BFC002032BD032032BD00203F
:1055D00070470020704700207047114901F10C020C
:1055E000C261682202702422827001220282092292
:1055F00042824161002070470248704740BB03006F
:105600008CC10300D8BA030000000000000069400C
:10561000C8C2030051630000CB6300009B6300001D
:105620002C660300534C43204C5349206F6E4C6F43
:10563000636174696F6E4362000000004C5349203F
:105640006F6E536174656C6C6974654362206E752E
:105650006D206F66207361743A2025640A00000093
:10566000534C4320556E7265675F67665F70617368
:10567000736976655F636200534C43205265675FD0
:1056800067665F706173736976655F6362000000CF
:10569000534C4320556E7265675F636C5F70617336
:1056A000736976655F636200534C43205265675FA0
:1056B000636C5F706173736976655F63620000009D
:1056C0004C53492067707320696E697400000000B4
:1056D0004C534920476E7373537461727420726522
:1056E000742025642C20636E742025640A00000059
:1056F0004C534920476E737353746F70203A2025C2
:10570000640000004C534920476E737353746F70EC
:10571000207265742025642C20636E742025640A31
:1057200000000000B0B581EA030C0CF0004C40F220
:10573000FF7515EA11541DBF15EA1357AC42AF426D
:1057400039E0E41923EA455343F48013C90241F0D8
:10575000004141EA505EC7021100A7FB0202002887
:105760004FF00000EEFB01204FF00001E3FB0721AA
:1057700018BF42F00102401800214941E3FB0E012D
:10578000A4F580640F0302D252004041494154F114
:1057900001046CDD470872F1004250F1000051EB4A
:1057A0000451A1F580115CBF41EA0C01B0BD4CEA87
:1057B00005510020B0BD05EA1357AC4214BFAF42FB
:1057C00041E050EA410E1CBF52EA430E02E061463E
:1057D0000020B0BD24423C441BD15FEA070EF6D046
:1057E000090302BF01460020AEF1140EB1FA81F7A1
:1057F000AEEB070401FA07FE0C37C7F1200100FAEF
:1058000007F7C8404EEA000E23EA455343F48013DD
:10581000A2E733F00043B3FA83F704BFB2FA82FE83
:1058200077440B3FE41BB7F1200E2FBF02FA0EF3B3
:10583000BB40C7F1200E22FA0EFE38BF43EA0E032A
:10584000BA40641C82E750EA410E14BF52EA430E8C
:105850006FF000014FF4001717EB430F8ABF194692
:1058600017EB410FB5E74CEA05510020B0BDD4F16C
:105870000104B4F120070FDAC4F12007520828BF51
:1058800042F0010210FA07F501FA07F7E1BF2A43D7
:10589000E0403843E1400FE0352C98DCC7F12004AC
:1058A00052EA400220FA07F218BF42F0010231FA30
:1058B00007F0A1400A43002172F1004250F10000BC
:1058C00051EB0C01B0BD0000F446400D40EAC12090
:1058D000490006D200F014F8004248BF6FF00040C3
:1058E000604700F00DF84FF0004188428CBF084639
:1058F00040426047400D40EAC120490080F00D80E1
:1059000040F00040490DA1F58061491C05D4D1F15A
:105910001F0154BFC840C01770474FF000007047C8
:1059200000B585B000A80FF298411422FCF700FDE5
:1059300000A9DFF8180402F09BFB002803D00FF247
:105940005C4000F05BFA05B000BD80B54FF47A72A0
:10595000DFF8E813DFF8F00302F0EBFB002002BDF4
:105960007047DFF8EC03704710B586B0044601A815
:105970001421FCF715FDFFF7F4FF00900D222146DE
:1059800001A8FCF7C5FC0420ADF8070000A901A898
:1059900000F032FB06B010BDF0B589B0044602A895
:1059A0001421FCF7FDFC00200146CDE90001012592
:1059B00010E0284600F055FD00280AD0DDE9006718
:1059C000012000212A4602F01DFC30433943CDE975
:1059D00000016D1C292DECDB0D22214602A8FCF7ED
:1059E00097FC0820ADF80B0000A902A800F004FB0A
:1059F00009B0F0BD10B5040002D00FF2B43101E0DF
:105A00000FF2B4310FF2A03000F0F8F9CC48047076
:105A100010BDCB4800787047C94840787047C848E7
:105A20008078704770B586B0044600A81421FCF752
:105A3000B7FC0D22214600A8FCF76AFCC04CD4E953
:105A40000401002901D100280DD00DF105052A68B7
:105A50006B68101A63EB0101BA4A0123994202D81C
:105A600022D3904220D3BB4D2878401C2870802040
:105A700080F3118800BF00BF6878401C687002F096
:105A800097FD0DF1050632687368C4E90423C4E983
:105A900006016878401E6870C0B2002802D100205C
:105AA00080F3118802F0C0FE06B070BDA449D1E9B0
:105AB0000423C0E90023D1E90623C0E9022370478B
:105AC00038B502F075FD9E4AD2E9044520186941B7
:105AD000D2E90645001BA94134BD994902780A71F3
