:1000000008200300D96B0200956A0200996A020079
:10001000ED6B0200F16B0200F56B020000000000C6
:10002000000000000000000000000000F96B02006A
:10003000FD6B02000000000041720000E7100200AA
:100040000000000000000000016C02004D6A020088
:1000500009A90000000000000000000000000000EE
:100060000000000000000000E16B02000000000042
:10007000000000000000000089BB0000000000003C
:100080006FBC0000B1BC0000CD670200CD6702006C
:10009000FD660200000000000000000000000000FB
:1000A00070B500224FF41261DFF8140B02F002F970
:1000B000DFF8104B0022102104F11C0002F0FAF8C6
:1000C000DFF8045B0022182105F10C0002F0F2F8C1
:1000D0000022082104F12C0002F0ECF80022082193
:1000E00004F1340002F0E6F80020E063206460646C
:1000F000A0646862A862E862DFF8D06AB063F06367
:10010000E0642863306470646863A863E863012076
:1001100028640020B064F0644FF0FF306864A86485
:100120000020E864306520657065F06530667066B3
:10013000B066F06202462C21304602F0BBF842F273
:1001400010707081B081002070600220308100202A
:10015000306002460C21204602F0ACF8DFF8700A4D
:100160006060DFF8700A2060012020720020287093
:1001700028656880A880E8806065F0662881A065B1
:1001800030636865A8656066A066E0667067306782
:1001900068662866E86501202867E866A86600208A
:1001A000E867A86768670620B0860020A082F0672D
:1001B000B0672067DFF8200AE06500202066012094
:1001C000E082962068810620F0860C2020830020A3
:1001D000B06502464021DFF85C0D02F06BF80022AA
:1001E000062104F10C00BDE8704002F063B810B5C0
:1001F00084B0DFF8D0490C22214600A802F098F81C
:10020000FFF74EFF0C2200A9204602F091F81FBD17
:100210002DE9F0472DED0C8B90B00024254600A869
:1002200021460A460B460EC0302102F0B9F89FED78
:100230009B8ADFF8906996ED1B0AD6ED140AC6ED8D
:100240001B0ADFF8887997ED149A86ED149ADFF887
:10025000788998ED131AB8EE411ADFED911AC1EEC4
:10026000819AC7ED149AD8F84420D8F83490A9EBB5
:100270000200FA30FA21B0FBF1F1FA2303FB11007E
:1002800080B2002800F0FE834C2880F28180D8F8EC
:10029000401001297CD0D7F84CA0BAF1040F21D32B
:1002A000F4EE490AF1EE10FA1CD5B4EE699AF1EEBB
:1002B00010FA17D59FED7B1A20EE811AB4EE691A59
:1002C000F1EE10FA0ED59FEDDB1AF4EE419AF1EE45
:1002D00010FA07DB87ED149AC6ED140A86ED1B0AA7
:1002E00000F009BC97ED0EAA87ED0FAAD7ED10AA72
:1002F000C7ED11AA014600EE101AB8EE400AD8ED7B
:100300000B8AC8EE800A98ED0C1A81EE001A21467D
:10031000B963396420E0521C92B2FA2A00D1224615
:10032000DFF89C3803EB8203D3ED231A71EEE01A59
:10033000D3F8743402EE103A32EE412AD7ED0E2A89
:1003400041EEA12AC7ED0E2AD7ED101A42EE021A8D
:10035000C7ED101A491C89B28142DCDBD7ED0E0AC9
:1003600080EE80BA87ED0EBAD7ED100A80EE80CA13
:1003700087ED10CAD6ED1ABA98ED150AD8ED160A0F
:1003800070EE60CAC6ED1ACA00F092FF012802D1D1
:100390002046386376E3BAF1000F0BD1388E05287A
:1003A00002DB054620463886788E052802DB451993
:1003B000204678861AFA85F0002824D1B6EE00DAB5
:1003C0003CEE2A0A20EE0D0ADFED9B0AB4EE600A2D
:1003D000F1EE10FA11D43BEE0A0A20EE0D0ADFED21
:1003E000970AB4EE600AF1EE10FA06D4B3EE040AEE
:1003F000F4EE40CAF1EE10FA05D5388E401C38866E
:10040000C8F848903EE3388E002802D045192046AF
:1004100038861AFA85F0002815D1B7EE000AF4EEF6
:10042000409AF1EE10FA00F12D839FED850AF4EE6B
:10043000409AF1EE10FA03DB788E401C788621E3B7
:100440002046788603E0788E45192046788628462F
:1004500080B200F0C3FF012808D187ED149AC7EDE0
:1004600010AAC6ED1ABA87ED0EAA0BE39FED750A26
:10047000F4EE409AF1EE10FA02DBDFF8180C386562
:1004800020463886BAF1000F0ED1386D786586EDBA
:1004900013BAC6ED19CA00F0A5FE3CE0000000004A
:1004A00000007A446666E63FB6EE00DA00F09AFE97
:1004B000012816D197ED140AF0EE000A20EE200A6A
:1004C00087ED140A6BEE0D0AC7ED0E0A2CEE0D1A1D
:1004D00087ED101AC7ED0F0A87ED111A86ED140A81
:1004E0006D1C97ED140AD6ED140A30EE200A20EEAA
:1004F0000D0A87ED150A97ED0E0AD7ED0F0A30EEBB
:10050000200A20EE0D0A86ED130A3BEEAC0A20EE1F
:100510000D0A86ED190A98F80100012840F0A7821B
:10052000D8F80C00009000A8D8F810104160D8F856
:1005300014108160214617E000AB03EB820393EDBA
:10054000010A50F822C000EE90CAB4EE600AF1EE43
:1005500010FA05D500EB820C8CED000AC3ED010A00
:10056000521C022AE8DB491C022901DA2246F8E77C
:100570009DED000AB5EE400AF1EE10FA2AD5B5EE6F
:10058000400AF1EE10FA01DCB1EE400AD0ED020AA9
:1005900030EE800A80ED020A9DED000AB5EE400AB9
:1005A000F1EE10FA01DCB1EE400AD0ED010A30EEB6
:1005B000800A80ED010A9DED000AB5EE400AF1EED9
:1005C00010FA01DCB1EE400ADDED000A30EE800ADF
:1005D0008DED000A90ED010AD0ED020A30EEC01A4E
:1005E000DDED000A30EE600AB4EE401AF1EE10FACA
:1005F00005D5F0EE410AB0EE401AB0EE600AD6ED35
:100600000B0AC6ED0C0A31EE400A80EE010A9FED9E
:100610000E1A20EE010A86ED0B0A706BB063F4EE41
:10062000400AF1EE10FA11D570EE600AC6ED0D0A1F
:1006300010E000BF01004040000016430000A0424F
:10064000666616400100A0400000C84270EEC00A75
:10065000C6ED0D0A386F796F081800EBD0704010A6
:1006600002EE100A86ED0F2AC6ED108AD7ED100AA9
:10067000C6ED110AD7ED141ADFF8300CC0EDC41A1C
:1006800096ED121A31EE611AD6ED122A72EEE12AB7
:1006900021EE221A00F5447181ED011AC6ED121AFD
:1006A000D7ED1B1AC1ED021AD8F81810039103A94F
:1006B000C1ED011AC1ED020AC1ED038AC1ED041AB0
:1006C000C1ED058AC1ED061AB8EEC22A81ED072AEE
:1006D000C1ED081A81ED090AC1ED0A1A81ED0B1A64
:1006E000DDED032A9FEDD03A62EE832A9FEDCF3AEB
:1006F00041EE832A9FEDCE3A20EE833ADFEDCD3AEC
:1007000008EEA33ADFEDCC3A61EEA33A9FEDCB4A77
:1007100048EE843A9FEDCA4A21EE844ADFEDC94A89
:1007200002EE244ADFEDC84A61EEA44A9FEDC75AA3
:1007300040EE054A9FEDC65A21EE855ADFEDC55AB7
:1007400001EE255AF8EE085AF4EE652AF1EE10FA99
:1007500000F18D81DFEDC05AB4EE653AF1EE10FA8A
:1007600000F18581DFEDBD5AF4EE653AF1EE10FA45
:1007700000F17D81DFEDBA5AB4EE654AF1EE10FA70
:1007800000F175819FEDDF6AF4EE464AF1EE10FA52
:1007900000F16D819FEDDC6AB4EE465AF1EE10FA7D
:1007A00000F16581DFEDD96AF4EE662AF1EE10FA08
:1007B000C0F25D81DFEDD62AB4EE623AF1EE10FAB6
:1007C000C0F25581F4EE653AF1EE10FAC0F24F81B5
:1007D000B4EE464AF1EE10FAC0F24981F4EE654AF1
:1007E000F1EE10FAC0F24381DFEDCA2AB4EE625A8C
:1007F000F1EE10FAC0F23B81DFEDC72A9DED033A1E
:10080000B4EE623AF1EE10FA01D5CDED032ADDED3A
:10081000032A9FEDD83AF4EE432AF1EE10FA02DBF8
:10082000DFF8AC2B0392DFEDD42AF4EE621AF1EE7E
:1008300010FA01D5C1ED012A9FEDB83ADFEDB83AC3
:1008400091ED014AB4EE634AF1EE10FA01DB81ED5D
:10085000013A9FEDB44AF4EE440AF1EE10FA01D5E4
:1008600081ED024AD1ED020A9FEDAF4AF4EE440A4F
:10087000F1EE10FA02DBDFF85C2B8A60DFEDBF0AD5
:10088000F4EE608AF1EE10FA01D5C1ED030A9FED96
:10089000BC4AD1ED034AF4EE444AF1EE10FA02DB11
:1008A000DFF8342BCA60F4EE621AF1EE10FA01D5CB
:1008B000C1ED042AD1ED044AF4EE634AF1EE10FAD8
:1008C00001DB81ED043AF4EE608AF1EE10FA01D515
:1008D000C1ED050AD1ED050AF4EE440AF1EE10FA75
:1008E00002DBDFF8F42A4A61F4EE621AF1EE10FA44
:1008F00001D5C1ED062AD1ED060AF4EE630AF1EE48
:1009000010FA01DB81ED063AF1EE000AB4EE602A3E
:10091000F1EE10FA02D54FF08142CA61D1ED070A1B
:100920009FEDA12AF4EE420AF1EE10FA02DBDFF8A5
:100930002C2CCA61F4EE621AF1EE10FA01D5C1ED69
:10094000082AD1ED080AF4EE630AF1EE10FA01DB91
:1009500081ED083ADFED950AB4EE600AF1EE10FA87
:1009600001D5C1ED090A91ED090ADFED910AB4EE56
:10097000600AF1EE10FA02DBDFF8E42B4A62F4EED3
:10098000621AF1EE10FA01D5C1ED0A2A91ED0A0AB8
:10099000B4EE630AF1EE10FA01DB81ED0A3AB5EE2E
:1009A000401AF1EE10FA01D52246CA6291ED0B0A07
:1009B000DFED800AB4EE600AF1EE10FA02DBDFF838
:1009C000A42BCA62214612E01B1FD3ED000A92ED50
:1009D000031AF4EE410AF1EE10FA01D59FED760A02
:1009E000B8EEC00AD2ED020A00EE208A491C312975
:1009F00038DA9FED720A0B011A18D2F804C0BCF164
:100A0000010F0DF10C0C1B580CEB8303DCD11B1FE9
:100A1000D3ED000A92ED031AF4EE410AF1EE10FA5A
:100A2000DEDB9FED650ADBE7168733BDB0568DBD73
:100A300003275BB9E23C9CB9983115BEBF49D3B9D5
:100A40007061FDBD55C128BC36CB05BE3D7FDABB0C
:100A5000DDED0ABEE4BE353E6666A6BF3333F3BFA6
:100A6000CDCC4CBFB5EE408AF1EE10FA0ADC97ED22
:100A7000150A284680B200F0B1F800F057F8044695
:100A8000C8F84890C8F844900020C8F84C00C8F84E
:100A90002C00C8F83000C8F840000246102106F1CA
:100AA0001C0001F007FC00220C2108F10C0001F0F1
:100AB0007BFC4948F06500203066F88800281AD190
:100AC000F86F00280CD0B86C3969401AB98EB0EBB9
:100AD000510F02DB002038810DE0012038810AE04F
:100AE000388E798E11FA80F0032802DB01203881DC
:100AF00001E002203881204610B0BDEC0C8BBDE82F
:100B0000F08700BFCDCC8CBF333333BFCDCC0CC00E
:100B10009A9919BFCDCC4CBE5017C93F15E6684015
:100B200016E668407D90A341A2F2924438B50025B4
:100B3000DFF8BC4B0120E06700F0F0FC2060E06CC7
:100B4000A18E884214D3A06C2061A08DA080E08D7E
:100B5000E080A06DA061E06DE061206E2062606EBB
:100B60006062A06EA0620120A0672846E0670125B0
:100B7000284632BDC9AC4542A9F56E3EBA9F17441E
:100B80003564EC441148016981640021C16441600D
:100B9000022101810021C162016A0166816A8166C8
:100BA0000021C16770470000010058427B4D4F3D56
:100BB00047FFC742BEBA984101000000FFFFFFFF98
:100BC0000C5D03000052030000510300805103003C
:100BD00000002F430000704200007A442DE9F84FD6
:100BE0002DED048B82B08346F0EE400A00239E4632
:100BF0001846DFF8FC4AE56C05F10F0101F00F0122
:100C0000EA1D02F007020092CA4A02EB8106C6ED15
:100C1000000ABBF1000F15D0064611E04F1EBF1BA6
:100C200010374FEAE70C07EB1C7C4FEA2C1CB7EBA4
:100C30000C1703D402EB8707C7ED000A761C36B207
:100C40005E45EBDB102D02D2294609B200E00F21F0
:100C50009FEDB68A9FEDB51ADFEDB51A06461BE08B
:100C600052F8217000EE107AB5EE400AF1EE10FA5B
:100C700010DD38EE008AB4EE401AF1EE10FA01D51C
:100C8000B0EE401AB4EE610AF1EE10FA01D5F0EEC2
:100C9000401A761C491E09B20029E1D536B2314608
:100CA00003290BDB38EE410A30EE610A891E01EEA2
:100CB000101AB8EEC11A80EE018A07E0012905DB9F
:100CC00000EE106AB8EEC00A88EE008AB5EE408ADF
:100CD000F1EE10FA01D0002E01D1B0EE608A84ED61
:100CE000168A9FED950AB4EE408AF1EE10FA02D50D
:100CF000B0EE408A08E09FED910AB4EE408AF1EE32
:100D000010FA01DBB1EE028AB0EE040AB4EE408ABA
:100D1000F1EE10FA08D494ED1B0AF0EE080AB4EED6
:100D2000600AF1EE10FA02D50321A18501E0042149
:100D3000A185A66C06F00708DFF8BC7908EB070C64
:100D4000A18D8CF8B818BBF1000F0AD0721E02F00A
:100D50000702D21906F00709B94499F8B89882F841
:100D6000B89808220EE0B9F1040F00D1401CA8F198
:100D700001080FFA88F8B8F1000F01D508F108084A
:100D8000521E12B2012A16DB0FFA88F808EB070987
:100D900099F9B898B9F1030F02D10EF1010E03E0F1
:100DA000B9F1040F00D15B1C062AE0DBB9F1030F97
:100DB000D9D1401EDBE7E28D9BB21FFA8EFE734550
:100DC00007D39E4502D20420E0850DE000B2002842
:100DD00002D50320E08507E0012802DB0420E0853E
:100DE00002E09CF9B808E085B4F82E80B8F1040F51
:100DF00001D1184600E07046424509D0002020810C
:100E0000E088002820D1042D1ED3012020811BE082
:100E100013FA8EF2012A15DB052A10DB00EE102AE8
:100E2000B8EEC00AF6EE080A20EE200A00EE900A9C
:100E3000F8EE600AF4EE400AF1EE10FA02D5012055
:100E4000208101E002202081DFF8B09849B2B0EEA5
:100E5000480A484600F020F9DFED8D0AB4EE600A3A
:100E6000F1EE10FA01D5B0EE600A84ED170A58468B
:100E700000F1010A00EE90AAF8EEE08AD4ED180A1B
:100E800048EE800AC4ED180A9FEDCB9A20EE080ABE
:100E900020EE090A009907EB810101F65C0181ED62
:100EA000000ABBF1000F16D0002212E00099491E83
:100EB000891A08318B1001EB5373DB10B1EBC301BE
:100EC00005D407EB810101F65C0181ED000A521C9B
:100ED00012B28242EADB082D02D2284600B203E0B9
:100EE000072001E0401E00B20028FBD584ED190A5E
:100EF000414649B2484600F047F968EE090AB7EEA4
:100F0000001AC1EE200A20EE800AD4ED1A0A48EE3B
:100F1000800AC4ED1A0A0AEB0600A0640AEB050079
:100F2000E06402B0BDEC048BBDE8F18F000000006E
:100F30000000C84284C203006666A63F01009040DC
:100F400049B2032944D1DFED9D0AB4EE600AF1EE07
:100F500010FA01DBB0EE600A9FED991ADFED990AF5
:100F600040EE010A90ED011A9FED970AB4EE401A87
:100F7000F1EE10FA43DADFED951AB4EE611AF1EEF4
:100F800010FA74DBB4EE401AF1EE10FA6FD59FED53
:100F9000900A31EE000ADFED8F1A60EE211A9FED04
:100FA0008E0A9FED8E2A01EE002A22EE200A20EE04
:100FB000210A9FEDB72ADFEDB72A41EE022A62EE41
:100FC000A00AB7EE001A31EE611A00EE810A56E06F
:100FD000DFED830A60EE200A60EE800A9FEDAE1A14
:100FE00040EE410A9FEDAD0A70EE800A90ED011AC5
:100FF0009FED750AB4EE401AF1EE10FA0ADB90ED9F
:10100000010A9FED751ADFED751A40EE011A21EE07
:10101000A00A34E0DFED6D1AB4EE611AF1EE10FAB9
:1010200025DBB4EE401AF1EE10FA20D59FED680AE8
:1010300031EE000ADFED671A60EE211A9FED660AB5
:101040009FED662A01EE002A22EE200A20EE210AF8
:101050009FED8F2ADFED8F2A41EE022A62EEA00A71
:10106000B7EE001A31EE611A00EE810A07E090ED4A
:10107000010A20EE800ADFED8A0A20EE200A007ABB
:10108000022803D1DFEDCA0A20EE200A70470000D3
:10109000CDCC4C3E0000A04010B52DED028BB0EE43
:1010A000408A0C46DFED7F8A49B2FFF749FF64B200
:1010B000042C31D1DFED7C0AB4EE608AF1EE10FA37
:1010C00016DBB1EE021AB4EE418AF1EE10FA0FD53A
:1010D000DFEDB80A78EE200AB1EE041A60EE810A5C
:1010E000FCEEE00A10EE900AC01D08EE900A3DE00A
:1010F000B4EE608AF1EE10FA03D5072008EE900AEC
:1011000034E0F1EE020AB4EE608AF1EE10FA2DDB63
:10111000122008EE900A29E0F7EE080AB4EE608A81
:10112000F1EE10FA11DBDFEDA40AB4EE608AF1EE05
:1011300010FA0AD5FFEE080A78EE200AB1EE041A7A
:1011400060EE810AFCEEE08A10E0F7EE080AB4EEE9
:10115000608AF1EE10FA09D4DFED970AB4EE608AE6
:10116000F1EE10FA02DB062008EE900ADFF8580DC7
:1011700018EE901A00EB8100D0ED000A20EE200A54
:10118000BDEC028B10BD0000F0EE0C0A49B2042940
:1011900004D19FED8A1A40EE010A03E09FED881A00
:1011A00040EE010A9FEDDB0A20EE800AD0ED000A36
:1011B00020EE200A70470000000070429A99194002
:1011C0006ADEF13D8638163F00002A4300001643D0
:1011D000000016C3CDCC4C3D4260E53A6666263F22
:1011E0002575C23E0020DFF8081591ED140AF7EED0
:1011F000040AB4EE600AF1EE10FA47DADFF8CC2CFC
:10120000D288042A42DAD1ED150A9FED6E1A60EEFB
:10121000810AB4EE600AF1EE10FA03D5022A01DB6E
:10122000012012E0DFF8D41491ED0A0ADFED660A1E
:10123000B4EE600AF1EE10FA07DBDFED640AB4EEFB
:10124000600AF1EE10FA00D5012001281ED1DFF866
:10125000AC1491ED170AD1ED180A70EEC00A9FED9B
:10126000AE1AF4EE410AF1EE10FA07DBF7EE080AC7
:10127000B4EE600AF1EE10FA00D50020DFEDB30AFB
:10128000B4EE600AF1EE10FA00D5002070470000BD
:1012900052491D3BB81E053F7593E83F24975340C4
:1012A000C1C0C03B00000000666606401844030051
:1012B0000021DFF83C24D38D032B1BDA92ED140AB6
:1012C000DFEDA30AB4EE600AF1EE10FA12DB92ED44
:1012D0000E0AF2EE040AB4EE600AF1EE10FA09D535
:1012E00092ED100ADFED9B0AB4EE600AF1EE10FAFF
:1012F00000D5012192ED100AF6EE000A92ED111AC6
:1013000030EE011A21EE201AF3EE0E1AB4EE611A35
:10131000F1EE10FA1CD492ED0E1AD2ED0F1A71EE06
:10132000211A61EEA01AB2EE042AF4EE421AF1EE8E
:1013300010FA0DD4F3EE041AB4EE610AF1EE10FACD
:1013400006D4B1EE040AB4EE401AF1EE10FA00D55C
:10135000012192ED140A9FED801AB4EE410AF1EEDC
:1013600010FA23DBDFF8942392ED090A92ED0A1AB2
:1013700080EE010A9FEDA51AB4EE410AF1EE10FAD3
:1013800014DB00EE100AB8EE400A20EE200AD2ED7F
:10139000070AF4EE400AF1EE10FA07D5D2ED080A7A
:1013A000F4EE400AF1EE10FA00D50121084670472C
:1013B0003333733F666606C09A993940CDCC4C3EB4
:1013C000CDCCCC3D3333333F010020420000C84236
:1013D000C8AC4542A1F292443464EC440021C44AB2
:1013E000D36C13FA80F0022816D392ED140ADFEDC5
:1013F000880AB4EE600AF1EE10FA0DDB92ED110AE4
:10140000D2ED100A80EE200ADFED820AB4EE600A07
:10141000F1EE10FA00DB0121022818D39FED7E0ABD
:10142000D2ED110A92ED101AC0EE810AF4EE400AD4
:10143000F1EE10FA0BDBD2ED0F0A92ED0E1AC0EEB0
:10144000810AF4EE400AF1EE10FA00DB01210028D7
:101450000ED0AA4890ED190ADFED9E0A20EE200A70
:10146000D0ED1A0AF4EE400AF1EE10FA00D501218F
:1014700092ED140ADFED980AB4EE600AF1EE10FA6C
:1014800008DA92ED150ADFED950AB4EE600AF1EE86
:1014900010FA1ADB92ED100ADFED910AB4EE600A41
:1014A000F1EE10FA0DD492ED0E0ADFED8E0AB4EED5
:1014B000600AF1EE10FA04D4DFF8100AC08802289E
:1014C00003DBD08D032800DB01218C4890ED130A4B
:1014D000DFED830AB4EE600AF1EE10FA08D492ED63
:1014E0001B0AF1EE040AB4EE600AF1EE10FA0ED512
:1014F000106F526F101800EE100ABAEEEF0ADFED0F
:101500007A0AB4EE600AF1EE10FA00DB0121084617
:10151000704700000AD7A33B0100C03F0020744978
:101520008A6C12F10A0F0FD29FED700AD1ED180AE2
:10153000F4EE400AF1EE10FA06DAD1ED1A0AF4EEF2
:10154000400AF1EE10FA00DB0120704785EB113FF5
:1015500001000040000020420100404000005842CD
:1015600046FFC742BDBA984110B401460020634A05
:10157000614BD3F8144900EE104AD1ED000AB4EEE5
:10158000600AF1EE10FA08D1147B641C1473E4B203
:10159000FE2C04DB3224147301E00446147303F6BA
:1015A000141393ED010AD1ED010AB4EE600AF1EED5
:1015B00010FA08D1547B641C5473E4B2FE2C04DB93
:1015C0003224547301E00446547393ED020AD1EDC2
:1015D000020AB4EE600AF1EE10FA08D1917B491CC0
:1015E0009173C9B2FE2904DB3221917301E00146F7
:1015F0009173117B322905DA517B322902DA917B12
:10160000322900DB012010BC704700003433333F27
:10161000010060400100A04001007041014600202F
:1016200091ED000AB5EE400AF1EE10FA01DCB1EEE0
:10163000400A324ADFED2F0AB4EE600AF1EE10FAEA
:1016400008DBD37B5B1CD373DBB2FE2B04DB3223C2
:10165000D37301E00346D37391ED010AB5EE400A5E
:10166000F1EE10FA01DCB1EE400AB4EE600AF1EEE0
:1016700010FA08DB137C5B1C1374DBB2FE2B04DB5B
:101680003223137401E00346137491ED020AB5EEA0
:10169000400AF1EE10FA01DCB1EE400AB4EE600A45
:1016A000F1EE10FA08DB517C491C5174C9B2FE29D5
:1016B00004DB3221517401E001465174D17B32299F
:1016C00005DA117C322902DA517C322900DB012053
:1016D000704700009A99993E0100904001008040B7
:1016E0000000C8430000164301005C428096184B7E
:1016F0008051030035336B410C5D03000052030041
:101700002DE9F24F2DED048B84B004469FEDE58A60
:10171000DFEDE48A9FEDE39ADFF8405BE888ADF8FF
:101720000800A888ADF8020028898DF8000000277D
:101730003E462046FFF718FF01902046FFF76EFF58
:101740008246DFF888873046C8F85400C8F8580049
:10175000D8F86800DFF8089BD9F8141900EE101AC1
:10176000D4ED000A30EEC01A01EE900AF8EEE11A4C
:1017700021EE211AB5EE401AF1EE10FA1ED598EDC1
:101780001D1A70EE411AF5EE401AF1EE10FA01DC66
:1017900071EE401A9FEDC41AF4EE411AF1EE10FA00
:1017A00007DB296F491C2967D8F85C10491CC8F869
:1017B0005C1088ED1D0A4042C8F8680009F6141054
:1017C00090ED010AD8F86C1094ED011A31EE401A30
:1017D00001EE901AF8EEE11A21EE211AB5EE401A48
:1017E000F1EE10FA1ED598ED1E1A70EE411AF5EEC4
:1017F000401AF1EE10FA01DC71EE401A9FEDAA1AC0
:10180000F4EE411AF1EE10FA07DB2A6F521C2A6738
:10181000D8F86020521CC8F8602088ED1E0A4942A2
:10182000C8F86C1090ED020AD8F8700094ED021A16
:1018300031EE401A01EE900AF8EEE11A21EE211A7B
:10184000B5EE401AF1EE10FA1ED598ED1F1A70EEA3
:10185000411AF5EE401AF1EE10FA01DC71EE401A71
:101860009FED911AF4EE411AF1EE10FA07DB296FA1
:10187000491C2967D8F86410491CC8F8641088ED21
:101880001F0A4042C8F8700098F80000052809D1E6
:101890000120C8F84000304688F80000A8F802008F
:1018A000A8F80400D8F84C0008990818C8F84C00AB
:1018B000D8F83400D8F84410884202D10120C8F882
:1018C0004000D8F8380000EB400109EB810B0BF623
:1018D000C000C0ED000A61684160A168816008999C
:1018E000204600F029FA68610198012802D0BAF177
:1018F000010F32D19FED6B0ADBF8C00800EE900AB1
:1019000060EEA00ADBF8C40801EE100A21EE011A0D
:10191000DBF8C80801EE900A61EEA11ADFF844096D
:10192000017B322904DAC17B322901DA30EE800AE8
:10193000417B322904DA017C322901DA30EE010AD6
:10194000817B322904DA407C322801DA30EE210A28
:1019500000F094FCF0EE409A37E00BF50C60D0ED0F
:10196000020A90ED011ADBF8C00800EE100A20EE22
:10197000000A01EE010A00EEA00A00F07FFCF0EE82
:10198000409AD4ED010A94ED000A20EE000A00EE20
:10199000A00A00F073FCB0EE408AD4ED020A94ED88
:1019A000010A20EE000A00EEA00A00F067FCF0EE4B
:1019B000408AD4ED020A94ED000A20EE000A00EEFF
:1019C000A00A00F05BFCB0EE409AD8F83C0000287A
:1019D0002ED130460CE009EB8001C1ED159A09EBE0
:1019E000800282ED008AC1ED078A81ED0E9A401CCB
:1019F0000728F0DBB1EE0C0A69EE800AC8ED090A8F
:101A0000D8F80C00C8F81800D8F81000C8F81C0066
:101A1000D8F81400C8F8200068EE000AC8ED030AE0
:101A200068EE800AC8ED040A29EE000A88ED050A6E
:101A3000D8F8380009EB800191ED150A39EEC00A9B
:101A4000D8ED090A30EE200A88ED090AC1ED159A91
:101A5000D8F8340009EB800080ED230AD8ED0B0A9A
:101A600070EE800AC8ED0B0AD8F80C20C8F81820D0
:101A7000D8F81020C8F81C20D8F81420C8F8202066
:101A8000D8F8382009EB820282ED008AC1ED078A7E
:101A900081ED0E9A3246DFED030A9FED021ADFED6B
:101AA000011A12E000000000CECC4C3E09EB82038C
:101AB00093ED002A70EE820A93ED072A31EE021AA6
:101AC00093ED0E2A71EE821A521C072AEEDBC8ED46
:101AD000030A88ED041AC8ED051AD1ED1C0A70EE50
:101AE000600A00F27442C2ED000A81ED1C0A98ED12
:101AF0000C0AD0F8741400EE901A30EE200A88ED2B
:101B00000C0A09F6141194EC030A81EC030ADFF8BD
:101B10005417096F01290AD10120C8F84000304646
:101B200088F80000A8F80200A8F804007EE0D8F8C1
:101B30005010491CC8F8501098F80020012A01D014
:101B4000032A3AD102292BD2EA8D042A28DAE96C39
:101B500000296BD198ED0A0ADFEDDA0AB4EE600ACB
:101B6000F1EE10FA08D5D0F8741401EE101AB4EEA4
:101B7000601AF1EE10FA0FDAF9EE0C0AB4EE600A10
:101B8000F1EE10FA52DBD0F8740400EE100AB4EE55
:101B9000600AF1EE10FA49D50120C8F8400045E08E
:101BA00027290AD3B8F80220002A03D011FA82F1BB
:101BB0004B2902D30121C8F84010D0F8740400EE7C
:101BC000900A98ED0A0A00F083F998F800000128BD
:101BD0002CD1B8F80200002828D0B8F80410002949
:101BE00024D0032211FA80F03D2802DB0120C8F83E
:101BF0004000E88D042800DB0222B8F8060082428B
:101C000002D20120C8F840003046C8F86400C8F885
:101C10006000C8F85C00FEF7FBFA0746286F6867AB
:101C200030462867A8F80400A8F80600D8F8340061
:101C3000D8F84810401AFA30FA242146B0FBF1F1E6
:101C400004FB1100B8F80A10884201D100F031FA03
:101C5000D8F83400D8F84810401AFA302146B0FBC2
:101C6000F1F104FB1100642801D100F063FAE88867
:101C7000BDF80810814204D1BDF80210AA88914233
:101C800000D00126002814D0D8F83400D8F8481025
:101C9000401AFA302146B0FBF1F104FB1101322960
:101CA00002D10120288116E04B2914D1002028817F
:101CB00011E0A88800280ED0D8F83400D8F84810D1
:101CC000401AFA302146B0FBF1F104FB11007D28E7
:101CD00001D1012028819DF800002989884200D087
:101CE0000126D8F8340009EB8001D1F87414C8F843
:101CF0002810401CC8F83400FA2802D10020C8F887
:101D00003400D8F83800401CC8F83800072802D141
:101D10000020C8F83800D8F83C00401CC8F83C0047
:101D200047EA0600401E8041C043C00F04B0BDEC2E
:101D3000048BBDE8F28F000030B4DFF8243590ED5D
:101D4000000AD3F8142900EE902A30EE600A03F658
:101D50001412D0ED010A92ED011A70EEC10A90ED55
:101D6000021AD2ED021A31EE611AB5EE400AF1EE16
:101D700010FA02DDF0EE401A01E0F1EE401AF5EE45
:101D8000400AF1EE10FA02DDB0EE602A01E0B1EE99
:101D9000602AB5EE401AF1EE10FA02DDF0EE412AAB
:101DA00001E0F1EE412A71EE821A71EEA21AB5EE4F
:101DB000400AF1EE10FA01DCB1EE400ADFF8A404AB
:101DC00090ED072A32EE000A80ED070AF5EE400A90
:101DD000F1EE10FA01DCF1EE600A90ED080A30EE47
:101DE000200A80ED080AB5EE401AF1EE10FA01DC87
:101DF000B1EE411A90ED090A30EE010A80ED090AB0
:101E000090ED0A0A30EE210A80ED0A0A2F4AD46BBF
:101E1000002C12D1002406E003EB850505F67C05B5
:101E2000C5ED001A641CA4B225460F2DF4DBB2EEFA
:101E30000E0A21EE800A80ED150A148903EB840353
:101E4000D3F87C5800EE105A31EEC00AD0ED150AD6
:101E500030EE200A80ED150A03F67C03C3ED001A6C
:101E6000F2EE0E0A80EE200ADFF8F03383ED1B0A53
:101E7000D0ED170AB4EE600AF1EE10FA01D580ED4C
:101E8000170AD0ED180AF4EE400AF1EE10FA01D567
:101E900080ED180ADFEDA50AB4EE600AF1EE10FA43
:101EA00003D5836DC918816501E000218165611C3E
:101EB000118189B20F2901D100211181806D30BCBF
:101EC000704700000100E040285303000051030068
:101ED0009FED971ADFF88403C08D042801DBB0EE74
:101EE000001ADFF88403B5EE400AF1EE10FA07DBC2
:101EF000F5EE400AF1EE10FA02D5C188491CC18006
:101F00000178002905D0022960D02DD3032976D08D
:101F1000B0E0F1EE0C1A31EE211AB4EE401AF1EEF7
:101F200010FA0BDBB4EE601AF1EE10FA06D5016D73
:101F30001029C0F08F80002101658BE0416BDFF834
:101F4000202302EB8101D1F8741401EE901ADFF81E
:101F50001C1391ED010AF4EE401AF1EE10FA40F173
:101F60008980C1ED011A85E0416BDFF8F42202EBB4
:101F70008101D1F8741401EE901ADFF8F01291ED9E
:101F8000002AB4EE612AF1EE10FA01D5C1ED001A73
:101F9000F7EE001AB4EE610AF1EE10FA6ADBB7EE62
:101FA000000AF4EE400AF1EE10FA63D5016D4180AB
:101FB00000210165B9EE0C0A30EE410AF4EE400A48
:101FC000F1EE10FA10D40221017053E0F9EE0C1A70
:101FD00031EEC11AB4EE410AF1EE10FA4ADBF4EE2A
:101FE000410AF1EE10FA45D5032101709C49426B7C
:101FF00001EB8201D1F874149C4A51603AE0416BC4
:10200000974A02EB8101D1F8741401EE901A9749B6
:1020100091ED012AF4EE421AF1EE10FA01D5C1ED6C
:10202000011ADFED7B1AB4EE610AF1EE10FA21D548
:10203000F4EE610AF1EE10FA1CDB016D81800021E3
:102040000165B1EE0C0A31EE000AB4EE600AF1EE61
:1020500010FA0ED50121017084490A6842654A6868
:1020600082657F4A436B02EB8302D2F874240A60D4
:1020700000E0017000787047002803D077492C22D7
:1020800000F056B97047002806D0764942684A6089
:1020900002680A60007A0872704780B5002801D192
:1020A000002002BD54220146714800F041F9012090
:1020B00002BD10B5694CE08DA18D002904D0002827
:1020C00002D00020208106E0084302D001202081B8
:1020D00001E0022020810020E0646062A061A08015
:1020E000A08520636065A06502464021614800F03C
:1020F000E1F8E06F012801D1FEF744FD5948818ADB
:10210000002909D0E28E8A4201D2A18600E0A2868F
:10211000002181820846A067A06F012801D1E08ECE
:10212000A0860020A06710BD00000000EC51383EE2
:102130000000000010B5494CE08DA18D002904D0AD
:10214000002802D00020208106E0084302D00120B0
:10215000208101E00220208100206062A061E085F2
:10216000E08002460821444800F0A4F800202063E3
:10217000E06F012801D1FEF705FDA06F012801D114
:10218000E08EA08610BD80B5012036490867FFF7B4
:10219000D1FFFFF78EFFBDE8014003E00020314989
:1021A000086770472F48008B2C49898E814200D2E6
:1021B00000E070472949CA6C8B8E9A4203D2888608
:1021C0000020886770472749888270472348C16C80
:1021D000002904D1018E408E10FA81F07047002052
:1021E000704701460020002902D0012901D0704724
:1021F00002E01A48C06C70471848818EC26C891A78
:10220000028E891A408E081A00D5002070470000FF
:10221000FEFF7FBF38B504461348124D0F49012C0D
:1022200006D10622CA860C222A839622428105E024
:102230000722CA860F222A8364224281E88AA042AA
:1022400009D0888E082803DAC88EFFF7B3FF02E0B2
:10225000288BFFF7AFFFEC8231BD000080510300F7
:102260000C5D0300005203000051030034C703005B
:102270002853030084C20300C465030081B08DEDC0
:10228000000A0098401000F1FE500090DDED000AB9
:10229000C0EE200A9DED001A70EE810ACDED000A15
:1022A000B5EE001ADDED001A80EE210A00EE810A7B
:1022B00001B0704762F30F2262F31F4200B500BF06
:1022C000130096469446103928BFA0E80C50FAD85F
:1022D0005FEA417C28BF0CC048BF40F8042BC90707
:1022E00028BF20F8022B48BF00F8012B00BD50F892
:1022F000041B61B150F8042BD30744BFA9F10103BB
:102300009A180023091F42F8043BFAD1EFE77047FF
:1023100062B38B0708D0521E11F8013B00F8013B55
:1023200000F024808B07F6D1830740F0208000BFA7
:10233000103A07D330B4B1E83810103AA0E838109A
:10234000F9D230BC530724BFB1E80810A0E8081048
:1023500044BF51F8043B40F8043BD20724BF31F896
:10236000022B20F8022B44BF0B7803707047083A09
:1023700007D3B1E80810083A40F8043B40F804CB12
:10238000F7D25307E4E78268521C8260426832B198
:102390000268531C036011704168491E4160704718
:1023A0000022FFF78BBF000062F30F2262F31F428F
:1023B000401810F0030308D0C91A1FD3DB0748BF29
:1023C00000F8012D28BF20F8022D130030B4144668
:1023D0001546103928BF20E93C00FAD8490728BF24
:1023E00020E90C0048BF40F8042D890028BF20F8E0
:1023F000022D48BF00F8012D30BC7047C91818BF26
:1024000000F8012DCB0728BF00F8012D7047000010
:1024100030B400210FE000EB8302546850F82350E1
:10242000A54202DA40F8234055605B1CC1F104026A
:102430009342F0DB491C042901DA0023F6E730BCA3
:10244000704710B5DFF8984D00222021201DFFF7BE
:1024500031FF4FF0FF3060620020207010BDDFF8C8
:10246000801D4A6A0B78002B03D1072A01D1012372
:102470000B70521C931002EB5373DB10A2EBC302E0
:102480004A6201EB82014860704770B588B0002451
:10249000DFF84C0D017800292CD02022011D00A866
:1024A000FFF746FF204600A90DE051F8202051F823
:1024B0002530934203D241F8203041F825206D1C8D
:1024C000082DF2DB3046072802DA461C3546F7E7CE
:1024D000022104E000A850F821000419491C062933
:1024E000F8DB00EE104ABBEECF0ABCEEC00A10EEDD
:1024F000100A18E0214604E000EB8102526814192A
:10250000491C426A8A42F7DA00EE104AB8EE400AE5
:10251000501C00EE900AF8EEE00A80EE200ABCEEB5
:10252000C00A10EE100A08B070BD4FF47A71414332
:102530000C2000E0401E002806D0DFF8942D02EBAE
:102540008002926E9142F5D3C0B270474FF47A7117
:10255000484340F6DC21B0FBF1F0401E80B27047EA
:1025600080B500920B4602467221052001F026FF3D
:10257000002801D1002002BDDFF8580D01F078FFDE
:10258000052002BDF0B583B007460C4615461E4631
:1025900000208DF80400ADF80600002E2FD0012099
:1025A000009001AB3A467221052001F007FF002898
:1025B00005D00FF2880001F05BFF0520FEBD8DF80D
:1025C00006709DF80400B0430DF10607787021787D
:1025D0003140084378706B1CDBB20DF106027221AA
:1025E000052001F0C6FE002825D02B467A789DF8FC
:1025F00006100FF2580001F03BFF0520FEBDDFF88A
:10260000D86C024681213046FFF754FE37702A46C7
:102610002146701CFFF77CFE6B1CDBB23246722138
:10262000052001F0A6FE002805D0DFF8A80C01F077
:102630001FFF0520FEBD0020FEBD0000233E726589
:10264000616420493243204661696C00233E777201
:1026500069746520493243204661696C2073657452
:102660005F76616C756520307825782C2030782570
:10267000782C20256400000000B585B0DFF85C1CD4
:102680004A6802608A684260CA688260B1F90020C4
:10269000C2600A6902614A69426189698161039184
:1026A0004169029101690191C168009183684268A2
:1026B00001680FF20C0001F0DBFE1C2005B000BD2C
:1026C000233E6C2067657420434F454620256420D7
:1026D0002564202564202564202564202564202588
:1026E0006400000000B585B01C2806D001460FF636
:1026F000602001F0BDFE01200FE088690390486969
:10270000029008690190C86800908B684A6809685F
:102710000FF20C0001F0ACFE002005B000BD00007F
:10272000233E6C2073657420434F4546202564206A
:102730002564202564202564202564202564202527
:102740006400000038B504460020ADF80000012008
:102750008DF80200002302460DF102018020FFF7F0
:1027600011FF050005D0DFF8E00D01F081FE2846DD
:1027700032BD20468DF80000200A8DF801000023AC
:10278000022200A9CA20FFF7FDFE050005D00FF2C6
:10279000100001F06DFE284632BD002032BD000061
:1027A000233E41535445504C2049324320466169F1
:1027B0006C00000038B5044600208DF801001020A0
:1027C0008DF800000023012200A9AF20FFF7DAFEF8
:1027D000050035D1DFF8741D022C19D10023142215
:1027E00014311846FFF7CEFE050018D111208DF8E0
:1027F0000100002301220DF101018020FFF7C2FE3C
:10280000050012D0DFF8CC0A01F032FE284632BDB6
:10281000002314221846FFF7B5FE0500E6D00FF29C
:10282000300001F025FE284632BD00208DF8000062
:102830000346012200A9AF20FFF7A4FE050005D042
:102840000FF2240001F014FE284632BD002032BDF4
:10285000233E52414D5F535441525420493243204C
:102860004661696C00000000233E4346473620491C
:102870003243204661696C007CB504460020ADF807
:1028800004000090DFF8485A6C66EE68022C67D1AD
:1028900001D00320A8640FF2582001F0E9FD4FF4A5
:1028A0007A50E8606864FFF751FEFFF74BFF0600BF
:1028B00040F099800220FFF77DFF060040F0B480D1
:1028C00000208DF804000346012201A9D520FFF75E
:1028D00059FE060040F0B98000208DF80300034641
:1028E00001220DF10301FC20FFF74CFE060040F031
:1028F000F98001208DF800000023024600A9802005
:10290000FFF740FE060040F0ED801C208DF802002D
:10291000042301220DF10201B120FFF733FE06006E
:1029200040F0CE804FF400702885FFF7FEFD8DF853
:1029300001001F2301220DF10101AA20FFF722FE51
:10294000060066D103208DF800000023012200A9B3
:102950008020FFF717FE060040F0C480002076BDFF
:102960000FF2A01001F084FD686EA04201D0022099
:10297000A8640120A860B5F924004FF47A711028EA
:1029800006DA29842D20686040F60C00E86019E022
:10299000A0F11002192A06D22984432068604FF45E
:1029A000A560E8600EE029380A28298405D25C2059
:1029B000686040F29D30E86004E07520686040F295
:1029C000B120E860E968B6B28E4205D10FF2481036
:1029D00001F04EFD002076BD0846FFF7B7FDFFF77A
:1029E000B1FE060005D00FF2481001F041FD30465F
:1029F00076BD4FF400602861FFF797FD8DF8010068
:102A00001F2301220DF10101AA20FFF7BBFD0600E3
:102A100005D00FF63C3001F02BFD304676BD204648
:102A2000FFF7C8FE060005D00FF2181001F020FDD8
:102A3000304676BD38208DF804000023012201A91C
:102A4000D520FFF79FFD060005D00FF2101001F012
:102A50000FFD304676BD06208DF8030000230122CD
:102A60000DF10301FC20FFF78DFD06003AD1022095
:102A70008DF80500034601220DF10501FA20FFF74C
:102A800081FD060005D0DFF8A40D01F0F1FC304611
:102A900076BD01208DF800000023024600A98020A9
:102AA000FFF770FD06001DD118208DF802000423E9
:102AB00001220DF10201B120FFF764FD060005D0EF
:102AC0000FF69C2001F0D4FC304676BD03208DF833
:102AD00000000023012200A98020FFF753FD06001B
:102AE0003FF43CAFDFF8E40D01F0C2FC304676BDA8
:102AF000233E53455420414C535F414C474F5F5256
:102B000047424300233E53455420414C535F414CC0
:102B1000474F5F4649464F00233E6974696D652003
:102B20006973207468652073616D652025640000F9
:102B3000233E7365745F6974696D65204661696CD5
:102B400000000000233E7365745F736D75785F63EA
:102B50006F6E666967204661696C0000233E414CD8
:102B6000535F4348414E4E454C5F4354524C2049BD
:102B70003243204661696C002DE9F8432DED028B4C
:102B800082B004460025DFF84867706E022801D144
:102B9000308D00E0306980B2FFF7C7FC0746F0686F
:102BA0004FF47A71484340F6DC2190FBF1F001F0DC
:102BB00067FD41EC180B53EC182BDFF8140DDFF810
:102BC000141D01F06BFD01F051FE8146A04653EC4F
:102BD000182BDFF8FC0CDFF8001D01F05FFD01F0A1
:102BE00045FE404506D2002F04D03846401E8DF8E1
:102BF00000000AE0C84505D20C2F03D2781C8DF8DE
:102C0000000002E038468DF800009DF80000B84250
:102C10005BD006EB8000806E4FF47A71B0FBF1F56B
:102C2000224629460FF2B00001F022FC35853561BD
:102C3000012528468DF80100002302460DF101010F
:102C40008020FFF79FFC040009D0DFF8880601F020
:102C50000FFC2046401E8041C043C00F36E01F23BA
:102C60002A4600A9AA20FFF78DFC040005D00FF624
:102C7000E00001F0FDFB284628E003208DF801006C
:102C800000232A460DF101018020FFF77BFC0400A0
:102C900009D0DFF8400601F0EBFB2046401E8041E2
:102CA000C043C00F12E002208DF8020003462A46FE
:102CB0000DF10201FA20FFF765FC040005D0DFF8F2
:102CC0006C0B01F0D5FB284600E0284602B0BDECB5
:102CD000028BBDE8F2830000233E206761696E200D
:102CE00063686720746F3A202575282575290000D0
:102CF0002DE9F843DFF8D875D7F844804FF0000984
:102D0000388D4FF47A7101FB00F4E5174FF0FF3076
:102D1000014642464B4601F0E1FD4946A94213D81F
:102D200001D3A04210D24FEA5808640844EAC5749F
:102D30006D08A4FB080105FB0811FA224B4601F0BF
:102D4000CDFD04460D460AE0A4FB080105FB081171
:102D50004FF47A724B4601F0C1FD04460D46012D39
:102D600006D301D8002C03D30FF2300001F080FB12
:102D7000DFF868050669204629463246F31701F058
:102D8000ADFD0446009433463A8D796C0FF2240071
:102D900001F06EFB2046BDE8F2830000233E74651F
:102DA0006D7043706C206F766572666C6F77202152
:102DB0002121000074696D653D25642C20676169DF
:102DC0006E3D25642C2064666163746F723D2564DA
:102DD0002C2063706C3D2575000000002DE9F14F3B
:102DE0002DED028B8A4616461F460024DFF8E0547C
:102DF000BDF93090B9F14E0F1CDAA8690299484329
:102E0000E9690AFB1100012800DA012069694843D9
:102E1000E968890090FBF1FBE88D052190FBF1F159
:102E200001EB8101401AE88580B205EB8000C0F813
:102E30004CB08FE0F01B4FEA80089FEDC31BB0EE53
:102E4000418AF0EE618A404601F010FC41EC100B23
:102E5000B0EE481AF0EE681A01F0FBFF53EC102BAD
:102E60004FF00050DFF8CC1D01F018FC02F010FA12
:102E700000EE100A00EE909AF8EEE00A9FEDB01A0C
:102E80009FEDB08A00EE818A4FEA860920EE080A9B
:102E900000EE908AF8EEE00A20EE200ABDEEC00AAD
:102EA00010EE100AA9EB000BDFF88C0D834520DB38
:102EB000B8F1470F1DDB9FEDA41B9FEDC50B01F083
:102EC000C8FF53EC102BDFF8740DDFF8681D01F01C
:102ED000E5FB02F0DDF900EE100ADFEDBF0A20EE9F
:102EE000200A20EE080ABDEEC00A10EE100AA9EB77
:102EF000000B1BF1640F0EDAB819800000EE100A07
:102F0000B8EEC00ADFEDB50A20EE200ABDEEC00A19
:102F100010EE10BA11E00BF1640064280DD2B8195C
:102F2000800000EE100AB8EEC00ADFEDAE0A20EE17
:102F3000200ABDEEC00A10EE10BAE88D052190FB04
:102F4000F1F101EB8101401AE88580B205EB8000C8
:102F5000C0F84CB0286E00281DD1E86C214606E070
:102F600005EB8102D26C824200DA1046491C052929
:102F7000F6DB214604E005EB8102D26C1419491CF2
:102F80000529F8DBE98D491CE985201A411000EB81
:102F9000917080100FE05346029A59460FF22000BC
:102FA00001F066FA286E401E2866032801D15846B3
:102FB00001E04FF0FF30BDEC028BBDE8F28F000066
:102FC000233E21214C5558203D2025642C206D693D
:102FD0006E202564202564002DE9F44F06468C46BA
:102FE0001846BE4FB7F90020D3170021A0FB0245B9
:102FF00000FB035511FB0255A246AB467C68E51762
:103000003246A2FB048902FB05991AEB080A4BEB36
:10301000090BBA68D3176446A4FB028904FB039921
:103020001AEB080A4BEB090BFC68E517BDF800200A
:10303000A2FB048902FB05991AEB08044BEB090576
:10304000042805DA002D03DC00DB01D20C460D4616
:103050009F48008D396A814203D03862FFF748FEED
:10306000F8612D0145EA1475240120462946FA69C4
:1030700000234FF47A74DFF8C88B994649450BDC7E
:1030800001DB404508D2A4FB008904FB01994046BE
:10309000494601F001FC07E001F0FEFB02460B4649
:1030A000A4FB020104FB0311083041F100010009F7
:1030B00040EA01700911002903DC00DB01D2002085
:1030C00001462246002301F0E7FB0A990860002E22
:1030D00000D101267869BDF80010414391FBF6F15B
:1030E00040180B990860BDE8F18F38B5042806D068
:1030F00001460FF25C0001F0BBF9012032BD0C6803
:10310000DFF8405BAC846C7021460FF6F43001F0C0
:10311000AFF902F084F9002807D10020A8842246E4
:1031200001460FF6F43001F0A3F9B5F924000028A8
:1031300001D1022000E00120FFF79EFB002032BDFC
:10314000C364AA3A091B2E3F0000002063EECA3F69
:10315000233E6C20636F6566206C656E6774682023
:103160006572726F722825642900000010B501286D
:1031700006D001460FF6B43001F07AF9012010BDF7
:103180000878441EA441E443E40F21460FF6BC3006
:1031900001F06EF9002C01D1FFF753F9002010BDAA
:1031A00080B5012806D001460FF6B03001F060F975
:1031B000012002BD0978DFF88C0A81700022428567
:1031C00082850FF6BC3001F053F9002002BD0000EB
:1031D000000000000080514000008C42CDCC4C3EED
:1031E000B4570300CDCCCC3D70B582B004467025F9
:1031F000002600E04036702E18DAC6F17000402834
:1032000001DB402000E080B2C0B2009033193046AC
:10321000A0F18002D2B27221052001F0CFF800287F
:10322000E8D00FF6703001F023F90025284676BD6E
:1032300038B50C460125012806D001460FF664304A
:1032400001F016F9002032BD28460090134622787E
:103250007221052001F0B2F8002805D021780FF680
:10326000643001F005F90025284632BD80B50228FA
:1032700006D001460FF6703001F0FAF8012002BDC9
:1032800002230A467221052001F073F8010000D1E3
:10329000002002BDDFF8AC09002141660421416035
:1032A000012181604FF47A51C1604FF400610161E6
:1032B0000C21416140F2E711816140F2B111C1611D
:1032C00080210184482141847D2181840020704730
:1032D000404F0300CC4C0000F8BD030034590300FC
:1032E00030B585B00020ADF802008DF80C00ADF8C7
:1032F0000A004FF40060FFF718F98DF80100002074
:103300008DF80000ADF80800019001220DF10301D5
:103310009220FFF725F9040005D00FF6EC2001F00C
:10332000A7F820460DE101220DF102019120FFF7DF
:1033300017F9040005D00FF6E02001F099F82046B7
:10334000FFE09DF802209DF803100FF6E02001F049
:103350008FF89DF80310182907D09DF802200FF66A
:10336000F02001F085F80120EBE001208DF80B0042
:10337000002302460DF10B018020FFF703F9040042
:1033800005D00FF6541001F073F82046D9E0042060
:103390008DF80A00002301220DF10A01F320FFF746
:1033A000F1F8040005D00FF6DC2001F061F82046AA
:1033B000C7E0012000F096FE4FF40070FFF7B5F86B
:1033C0008DF801000F2301220DF10101CF20FFF73D
:1033D000D9F8040005D00FF6C42001F049F82046C2
:1033E000AFE002208DF800003023012200A9B320B5
:1033F000FFF7C8F804000AD1C2208DF80000C023EE
:10340000012200A9B320FFF7BDF8040005D00FF694
:10341000A42001F02DF8204693E04FF40060DFF87F
:1034200024180885FFF781F88DF801001F23012279
:103430000DF10101AA20FFF7A5F8040005D00FF255
:10344000101001F015F820467BE0FF208DF80400F5
:1034500001AD68700023022201A98420FFF792F8D1
:10346000040005D00FF6602001F002F8204668E065
:103470000020ADF804000346022201A98620FFF7D0
:1034800081F8040005D00FF6542000F0F1FF20462B
:1034900057E008208DF808000346012202A9B82051
:1034A000FFF770F8040005D00FF6442000F0E0FFAD
:1034B000204646E08C208DF80900042301220DF1FE
:1034C0000901B120FFF75EF8040005D00FF290006B
:1034D00000F0CEFF204634E000208DF806000346C1
:1034E00001220DF106018120FFF74CF8040005D000
:1034F0000FF6102000F0BCFF204622E000208DF8DF
:103500000700034601220DF107018320FFF73AF877
:10351000040005D00FF6002000F0AAFF204610E0BE
:103520000023012203A9F920FFF72CF8040005D09D
:103530000FF6F81000F09CFF204602E0FFF7AAFE0D
:10354000002005B030BD0000D84C0000DC5703005F
:10355000233E4346473120493243204661696C008F
:10356000233E4346473820493243204661696C0078
:1035700038B500200090DFF8CC4620700820206489
:10358000052002F0CAFA222002F0C7FA01220DF14A
:1035900002019220FEF7E4FF050005D00FF6680057
:1035A00000F066FF284632BD01220DF10101912095
:1035B000FEF7D6FF050005D00FF65C0000F058FFBF
:1035C000284632BD9DF801209DF802100FF65C00E0
:1035D00000F04EFF4FF0FF30E060FEF732FF0020BA
:1035E0008DF800000F23012200A9BD20FEF7CAFFBD
:1035F000050005D00FF6481000F03AFF284632BD0E
:10360000B4F924100FF6481000F032FFB4F924008A
:10361000002805D10220FFF72FF90320A06404E061
:103620000120FFF729F90220A064002301220DF1F7
:103630000301F920FEF7A6FF050005D00FF28C600C
:1036400000F016FF284632BD002032BD10B582B012
:1036500001208DF802000020ADF800000346012291
:103660000DF102018020FEF78DFF040010D1002330
:1036700001220DF10101F920FEF784FF040007D1BA
:103680000023012200A9FC20FEF77CFF040005D0E6
:103690000FF2386000F0ECFE204616BD002016BD8B
:1036A0002DE9F84F02460D4600242646DFF89475B2
:1036B000B7F924804FF0FF31D7F810C0D7F8089041
:1036C00023460AE020468646DFF87CA50AEB830AFB
:1036D000CAF84000CAF840E45B1CAB421ADA02EBBD
:1036E0008300B0F802A0504632F823B0DE46D3453E
:1036F00001D3F2468646514500DA5146BCF1000F2F
:10370000E0D04FEA4A2090FBFCF04FEA4E2E9EFBA1
:10371000FCFED9E7084680B2FFF72EFA002840F0F9
:103720008180DFF824A5B9F1010F17D10FF6380019
:1037300000F09EFE2046F885AAF8000004203866B6
:10374000234609E0204607EB8301C8640AEB8300A7
:103750002146416081615B1C052BF3DBDAF84020D8
:103760001146DAF8400423460FE00AEB830CDCF83C
:1037700040E0964500DA7246DCF840C4844500DA41
:103780006046714500DA71465B1CAB42EDDBBAF86E
:1037900000300AEB83056A60E962A861581CAAF848
:1037A000000080B2052836D12046AAF80000054660
:1037B0000AF10400FEF72CFE0AF12C00FEF728FEA9
:1037C0000AF11800FEF724FEDAF814C0DAF828101F
:1037D000DAF83020DAF81000234608E00AEB830E0E
:1037E000DEF804904C44DEF818E075445B1C052BB1
:1037F000F4DBA4EB0C04691A3C637963BA63F863E5
:10380000CDF8008003462046FFF7E8FA044614F19D
:10381000010F00D00126012E04D1002C00DA002473
:10382000204601E04FF0FF30BDE8F28FEC4C000085
:1038300010B584B0044600A800210A4606C0084618
:103840008DF80800082200A99520FEF789FE0028BF
:1038500004D00FF2347000F00BFE1FBD012202A94C
:103860009420FEF77DFE002804D00FF2307000F0A7
:10387000FFFD1FBDDFF8CC039DF8081001F00F011C
:1038800000EB8101896E4FF47A72B1FBF2F1018590
:1038900000A99DF803208B7843EA022262819DF8FB
:1038A00005209DF8043043EA0222A2819DF80720FA
:1038B0009DF8063043EA0222E28149789DF8002013
:1038C00042EA01212181008D20821FBDCC4C0000E5
:1038D0009A9999999999C93F9999E93FF8B5002022
:1038E0008DF801004FF0FF34012200A9FD20FEF702
:1038F00037FE070005D00FF2B86000F0B9FD38467A
:10390000F2BD01220DF10201A720FEF729FE0700FA
:1039100005D00FF2B46000F0ABFD3846F2BD9DF863
:103920000000002805D10FF2BC6000F0A1FD0120CD
:10393000F2BD9DF80200000617D502208DF80100A7
:10394000034601220DF10101FA20FEF71BFE0700DC
:1039500005D00FF2983000F08BFD3846F2BD0FF223
:10396000946000F085FD0120F2BD9DF8000042004A
:103970001046850805D10FF28C6000F079FD01201A
:10398000F2BDB24ED2B23146FE20FEF7E9FD07008D
:1039900005D00FF28C6000F06BFD3846F2BDA94FE8
:1039A000796E012949D1002008E0A1F800215A7858
:1039B0009B7842EA0322A1F80221401C97F802C03A
:1039C000A84218DA06EB800116F820204B7842EA6C
:1039D00003224B1CBCF1010FE7D1B98D10FA81F124
:1039E00006EB8101A1F800215A789B7842EA032274
:1039F000A1F80221E1E7BCF1010F09D1788D04287B
:103A000006DAB98D6918B985401C78852046F2BD63
:103A10000020B8857885294606F58070FFF740FEBE
:103A2000002800D40446B868012801D10020B860FD
:103A3000002C08D54FF0FF30F2BD0FF2F85000F027
:103A400017FD0020F2BD2046F2BD30B595B004460A
:103A5000002009900F907B4DB5F924000E90E86886
:103A60004FF47A7190FBF1F0ADF83200686E0228E5
:103A700032D110A8FFF7DCFEBDF84A00ADF82E00E9
:103A8000BDF84C00ADF82C00BDF84E00ADF82A0092
:103A9000BDF84800ADF82800288DADF830000FA81B
:103AA000019009A80090BDF82830BDF82A20BDF883
:103AB0002C10BDF82E00FFF78FFA09980D90A96C15
:103AC000012921DB02460FF2905000F0D1FCA86CD6
:103AD000401EA8640120ABE0FFF700FF0990286BAF
:103AE000ADF82E00686BADF82C00A86BADF82A007D
:103AF000E86BADF828002869ADF83000099810F19E
:103B0000010FDAD1012093E0FEF7A9FCFEF7BDFC1E
:103B10000990042209A92046FEF7FAFB04220FA906
:103B2000201DFEF7F5FB04220DA904F10800FEF7A5
:103B3000EFFB02220DF12E0104F10C00FEF7E8FB71
:103B400002220BA904F10E00FEF7E2FB02220DF1A6
:103B50002A0104F11000FEF7DBFB02220AA904F19E
:103B60001200FEF7D5FB02220CA904F11400FEF7A7
:103B7000CFFB02220DF1320104F11600FEF7C8FB63
:103B800004220EA904F11800FEF7C2FB13222146FD
:103B900005F19C00FEF7BCFB01202870286C012871
:103BA00021DBA8780890A86C079001200690BDF84A
:103BB00030000590BDF832000490BDF82800039055
:103BC000BDF82A000290BDF82C000190BDF82E002F
:103BD00000900E9B0D9A09990FF2984000F048FC56
:103BE000286C401E2864686E022818D1B5F924009C
:103BF000012806DB0998B0F57A7F02D20120FEF792
:103C00003BFE01F00CFC012811D10998B0F57A7F38
:103C10000DD26878A8840120FEF72EFE07E00998EF
:103C200040F6B931884202D30220FEF725FE00207B
:103C300015B030BDC7BAFF3F79ECFFFF5F29CB104D
:103C40009BC42000404F0300A8770300E8A30300B3
:103C500030B404460D4611461A4600201C2C07D0ED
:103C60001D2C09D0222C0BD1104630BCFEF704BD10
:103C7000104630BCFFF7B8BA284630BCFFF7D8BAB8
:103C800030BC704780B50B4611461D280CD0222849
:103C900006D02F280CD031280ED0322810D012E0B8
:103CA0001846FEF71FFD0EE01846FFF7DFFA0AE0A0
:103CB0001846FFF71AFA06E01846FFF757FA02E02F
:103CC0001846FFF76DFA002002BD0000233E49327E
:103CD00043204661696C0000233E454E41424C45FD
:103CE00020493243204661696C000000233E434F67
:103CF0004E54524F4C20493243204661696C0000BB
:103D0000233E204272696768746E65737320766122
:103D10006C75652025640000233E204C434420251B
:103D2000642C20427220256400000000233E6C2099
:103D300063616D20737461747573206C656E677454
:103D400068206572726F722825642900233E206303
:103D5000616D20656E20256400000000233E6C200C
:103D60007365742073616D706C696E67206C656E2D
:103D7000677468206572726F7228256429000000DC
:103D8000233E2073616D706C696E6720726174658B
:103D900020256400233E2064756D70206661696C87
:103DA00065640000233E2067657420726567207695
:103DB000616C206C656E677468206572726F722822
:103DC00025642900233E206765742072656720768C
:103DD000616C206661696C6564286164647220307E
:103DE0007825782900000000233E20736574207236
:103DF00065672076616C206C656E677468206572FB
:103E0000726F722825642900233E494420493243B9
:103E1000204661696C000000233E5245564944200B
:103E2000493243204661696C00000000233E206C4B
:103E30006967687420636869704964203078257800
:103E40002C207265764964203078257820000000A7
:103E5000233E206C6967687420696E6974206973F9
:103E6000206661696C65642063686970496420300C
:103E70007825782C20726576496420307825782062
:103E800000000000233E534F46545F5245534554B3
:103E900020493243204661696C000000233E4147BF
:103EA000435F4741494E5F4D4158204932432046C8
:103EB00061696C00233E434647313020493243203C
:103EC0004661696C00000000233E41494C544C207F
:103ED000493243204661696C00000000233E41499D
:103EE00048544C20493243204661696C0000000070
:103EF000233E504346473120493243204661696C96
:103F000000000000233E4154494D452049324320E2
:103F10004661696C00000000233E5754494D45201E
:103F2000493243204661696C00000000233E494E3F
:103F300054454E414220493243204661696C00009D
:103F4000233E5045525320493243204661696C005C
:103F5000233E6F70656E206272696768746E657368
:103F60007320256400000000233E616C732073659C
:103F70006E736F72203A20616C676F726974686D3E
:103F80002072657365740000233E41444154413002
:103F90004C20493243204661696C0000233E415366
:103FA000544154555320493243204661696C000006
:103FB000233E4649464F5F5354415455532049329E
:103FC00043204661696C0000233E444556524547F4
:103FD0005F5354415455533620493243204661695A
:103FE0006C000000233E4649464F20454D50545931
:103FF00000000000233E4649464F204F564552469A
:104000004C4F5700233E4649464F204E6F74206563
:104010006E6F75676820666F7220414C4700000024
:10402000233E46444154414C204932432046616975
:104030006C000000233E4552524F52204E6F7420B8
:10404000657870656374656420616C67206D6F646A
:104050006520256400000000233E6C696768745F7A
:10406000706572732069732025642C206C7578202C
:1040700025640000233E6C75783D2575202575204C
:104080006272696768746E6573733D257520723D51
:10409000256420673D256420623D256420633D251D
:1040A00064206974696D653D256420616761696E8E
:1040B0003D25642072656164793D256420706572D8
:1040C000733D25642025640010B5DFF838430022D5
:1040D00008212046FEF7EEF8204610BDDFF8240345
:1040E0007047000038B5044601F08CFF4FF47A7237
:1040F0006243841851EBE27500BF00BF00BF00BFF0
:1041000000BF01F07FFFA942F6D301D8A042F3D34C
:1041100031BD38B5044601F0D3F9DFF8EC22C2E92D
:104120000801002C28D0DFF8E4020078002823D012
:10413000DFF8DC422078401C2070DFF8D852287865
:10414000401C2870B449102002F05CF8802080F3F5
:10415000118800BF00BF2078401E207028780128F9
:1041600004D16868002801D002F0C8F82878401E01
:104170002870002080F311881B20BDE8324002F037
:10418000ADB938B5044601F09BF99F4AC2E9060172
:10419000002C25D09D480078002821D09C4C207808
:1041A000401C20709B4D2878401C28709A4908209C
:1041B00002F028F8802080F3118800BF00BF20782B
:1041C000401E20702878012804D16868002801D09A
:1041D00002F094F82878401E2870002080F311889F
:1041E0001C20BDE8324002F079B938B5044601F030
:1041F00067F9854AC2E90001002C25D1834800787F
:10420000002821D0824C2078401C2070814D2878D5
:10421000401C28708049202001F0F4FF802080F3AA
:10422000118800BF00BF2078401E20702878012828
:1042300004D16868002801D002F060F82878401E98
:104240002870002080F311882120BDE8324002F060
:1042500045B980B5002812D0032818D16F480090C6
:1042600000231A4603211C2002F004F96C48009038
:1042700000231A4603211B2002F0FCF801BD694807
:10428000009000231A460221212002F0F3F801BD1C
:1042900080B5FFF719FF02F07FF9BDE80140CDE0DE
:1042A00080B5084601F0BEF85F49604802F09CF90D
:1042B000002805D00FF29810BDE8024000F0D8B8F1
:1042C00001BD00235A4A4021574802F0EBB9EB23C5
:1042D0000FF28C1202F0B1B9F8B50C4615461E4625
:1042E00005274C480178491C0170002002F0D8FADB
:1042F000002806D133462A462146002002F0D3FA90
:10430000074602F0F7FB3846C0B2F2BDF8B50C46DE
:1043100015461E4605273F480178491C01700020BC
:1043200002F0BEFA002806D133462A462146002074
:1043300002F0BBFA074602F0DDFB3846C0B2F2BD20
:1043400002280ED005280CD006280ED008280AD046
:104350000E2806D01D2806D0222802D0692802D0B7
:1043600005E00420704707207047092070470020AF
:1043700070472DE9F8430C4615461E46052740B206
:10438000FFF7DEFF804615F8019B22480178491CA3
:1043900001702849404602F026FD002808D100950A
:1043A000731EDBB24A466108404602F032FD074602
:1043B00002F0A0FB3846C0B2BDE8F2832DE9F0411F
:1043C00082B00C4615461E46052740B2FFF7B8FFDF
:1043D000804610480178491C01701649404602F099
:1043E00002FD002807D10096089B2A466108404636
:1043F00002F0FAFC074602F07DFB3846C0B2BDE889
:10440000F68100001CC70300B0C4030094C703007A
:1044100096C70300C05403005C6F03008351000083
:1044200013510000EB51000004C20300606A030056
:10443000A1520000801A060001F0CCBD80B5FFF744
:104440004DFE01210170C1704171817101BD0000FB
:104450004D534720426F782046756C6C0000000079
:1044600073746172745F74785F73747265616D00E8
:104470000EB470B5C1B0044600A84FF48071FDF7CA
:104480008FFF45AB22464FF4807100A802F038FD43
:1044900000A802F053FD441C002000A9611801F897
:1044A000010C644D2878401C2870802080F311880E
:1044B00000BF00BF6878401C68705F4E31780846C6
:1044C0002218FA2A0DDA5D4A8018002902D00A2142
:1044D00000F8011C224600A9FDF71AFF30782018C9
:1044E00030706878401E6870C0B2002802D1002089
:1044F00080F3118802F0FEFA41B070BC5DF810FB49
:104500004D480078002801D0801C00E00020C0B297
:10451000704738B5484C2278002A10D000280ED0B9
:10452000032101704270454D2946801CFDF7F0FEC5
:104530000022FA212846FDF7BDFE0020207031BD83
:10454000F0B595B004A80FF2FC010CC90CC0922084
:1045500002F010FD040004D10FF2F000FFF788FF15
:1045600065E000229221FDF71FFF002517E00020E3
:104570008DF802009DF80200002803D0C868019061
:1045800008690290306A002801D0C06803901022A8
:1045900000A904EB0510801CFDF7BAFE6D1C072D69
:1045A00016DA04A82F5C384601F0B7FA0600F5D0F9
:1045B00000A81021FDF7F4FE8DF8007006F1200030
:1045C000017A8DF8011041680029D0D00120CFE791
:1045D0000CA82021FDF7E4FE194800680C9001F0BA
:1045E00051F90D9000F015FF8DF838000DF13A00EB
:1045F00000F07DFF10A800F059FF20220CA904F163
:104600007200FDF785FE06A80FF24C011422FDF79B
:104610008FFE9220ADF81B003120207007206070C3
:10462000214606A802F0D0FC204602F0BBFC15B0E3
:10463000F0BD0000C054030091C70300C4B90300DB
:10464000240E02000102040508102C0052434920E8
:104650006661696C000000000500000000000000B9
:10466000000000000000000000000000010040F118
:104670000980F446404200F005F851F000416047DF
:10468000010000BF09D0B0FA80F18840C91CC1F513
:104690008461090501EBD02140057047B0B581EA7E
:1046A000030C0CF0004C40F2FF7515EA11541DBFCD
:1046B00015EA1357AC42AF4239E0E41923EA4553F7
:1046C00043F48013C90241F0004141EA505EC70241
:1046D0001100A7FB020200284FF00000EEFB0120B2
:1046E0004FF00001E3FB072118BF42F00102401820
:1046F00000214941E3FB0E01A4F580640F0302D2BF
:1047000052004041494154F101046CDD470872F107
:10471000004250F1000051EB0451A1F580115CBF43
:1047200041EA0C01B0BD4CEA05510020B0BD05EADC
:104730001357AC4214BFAF4241E050EA410E1CBFD8
:1047400052EA430E02E061460020B0BD24423C44E0
:104750001BD15FEA070EF6D0090302BF0146002015
:10476000AEF1140EB1FA81F7AEEB070401FA07FEC1
:104770000C37C7F1200100FA07F7C8404EEA000ED7
:1047800023EA455343F48013A2E733F00043B3FA1E
:1047900083F704BFB2FA82FE77440B3FE41BB7F104
:1047A000200E2FBF02FA0EF3BB40C7F1200E22FAF3
:1047B0000EFE38BF43EA0E03BA40641C82E750EA9B
:1047C000410E14BF52EA430E6FF000014FF4001780
:1047D00017EB430F8ABF194617EB410FB5E74CEAB9
:1047E00005510020B0BDD4F10104B4F120070FDA67
:1047F000C4F12007520828BF42F0010210FA07F561
:1048000001FA07F7E1BF2A43E0403843E1400FE0F7
:10481000352C98DCC7F1200452EA400220FA07F256
:1048200018BF42F0010231FA07F0A1400A4300210B
:1048300072F1004250F1000051EB0C01B0BD0000DC
:10484000F446400D40EAC120490006D200F014F8B9
:10485000004248BF6FF00040604700F00DF84FF095
:10486000004188428CBF084640426047400D40EA04
:10487000C120490080F00D8040F00040490DA1F5B5
:104880008061491C05D4D1F11F0154BFC840C01735
:1048900070474FF00000704713F0004C03D55B42A7
:1048A000524263F100039CEA210C00F0178010B51E
:1048B000644603D34942404261F1000100F00EF822
:1048C000640004D34942404261F10001244203D50F
:1048D0005B42524263F1000310BD00001B4213D142
:1048E000094236D12AB18446B0FBF2F002FB10C275
:1048F000704702F0EDBBFCD30022002370470B0091
:104900000200002100207047904271EB030CF6D3A7
:1049100070B5B1FA81F4B3FA83F52C1BA340C4F14E
:10492000200532FA05F63343A2405FF00046E64028
:1049300002E05B085FEA3202841A71EB030524BFD0
:10494000204629467641F4D302000B0030000021B6
:1049500070BD012ACFD970B5140C20D0B1FA81F402
:10496000B2FA82F5C4F120046419B4F12006D6D35A
:10497000B2405FF00044F440002502E052085FEAD4
:104980003303C61A71EB020E24BF304671466441F0
:104990006D41F3D302000B002000290070BD0C46CE
:1049A000B1FBF2F102FB11452D0445EA1045B5FBC0
:1049B000F2F402FB145580B240EA0545B5FBF2F073
:1049C00002FB105240EA044070BD000000000000ED
:1049D0002DE9F8452DED088B0FB486B040F2FF713C
:1049E00007989DED080B8DED040BC0F30A5088422B
:1049F00008D107980024000305BF06980028022567
:104A0000012512E0012807DA06A802F062FB01285E
:104A100002DB0024002508E0079A40F2FE3161F332
:104A20001E520792441A4FF0FF35002104A802F0ED
:104A300071FB1A9F06460FB10020388036B9DDE9B8
:104A400008230020002102F0A5FB12D0002D13D571
:104A500024B2012C15D1DDE906230020DFF88C13E8
:104A600002F098FB05D0012E0BD1DF4902F092FB3A
:104A70003ED10AB0CD49E8E1022D04D1DDE90601BD
:104A8000E2E1012E6FDB022E08BFDDE9080100F034
:104A9000DB81012D2AD107980028099806D4002827
:104AA00054BF9FEDD50B9FEDD60BCBE100280ED464
:104AB00056B94FF0FF3104A802F02CFB002848BF84
:104AC0009FEDD10B00F1BE819FEDCB0BBAE156B942
:104AD0004FF0FF3104A802F01DFB002848BF9FEDF6
:104AE000B40B00F1AF819FEDC60BABE1012E11D1EC
:104AF0000998002824B206D4012CACBF9FEDBE0B50
:104B00009FEDBF0B9EE1012CACBF9FEDBD0B9FED58
:104B1000BA0B97E10998002810D466B94FF0FF311D
:104B200004A802F0F7FA002842BF079800289FED7A
:104B3000A00B00F187819FEDB20B83E102F03AFBFD
:104B40002221016066B94FF0FF3104A802F0E2FAB9
:104B5000002842BF079800289FEDAB0B00F172813F
:104B60009FEDA50B6EE10798002848BF002E0CD5DD
:104B700002F020FB212101600AB04FF0FF30BDECB4
:104B8000088B6FF00041BDE8F485DDE906010022E5
:104B9000002302F015FB38BF002509D381F0004146
:104BA000CDE906014FF0FF3104A802F0B3FA054643
:104BB000012C13D1DDE906017F4A804B02F018FB7E
:104BC0000CD2DDE9062300269FED7D8B00204FF0FF
:104BD0008041FFF763FDCDE906011CE0DDE9062316
:104BE0009FED798B00207A49FFF758FD53EC182B85
:104BF00002F016FBFFF724FEA0F120063046FFF777
:104C000035FD0022734BFFF749FD53EC182B02F0E2
:104C100007FB41EC180B0FF2582000EB461ADDE9B8
:104C2000060153EC182B02F06FFBDDE9062341EC83
:104C3000190B51EC180B02F0F3FA02460B4651EC3B
:104C4000190B02F021FC41EC1A0B53EC1A2BFFF765
:104C500025FD41EC1B0B8DED069B02F06BFE53EC2A
:104C60001B2BFFF71BFDDDE9062302F04DFB06467B
:104C7000884600204D4953EC182B02F045FB0022DA
:104C80004FF08043FFF70AFD3246434602F0C8FA70
:104C900053EC1A2BFFF702FDDDE9062302F0C0FA00
:104CA00041EC180B4C4A4D4B02F0EEFBCDE90401F0
:104CB0002046FFF7DBFC41EC190BDAE9000153EC6D
:104CC000192B02F0ADFADDE9042302F0A9FACDE9CF
:104CD0000401DDE90823FFF7E1FC0022404BCDE9A8
:104CE000020102F085FAC0F0938001223D4B02F0F0
:104CF00067FA40F291800022002302F079FADDE9A0
:104D0000022339BF002038490020384902F088FAD0
:104D1000FFF796FD0446DDE9080153EC182BFFF779
:104D2000BDFCCDE90201DAE90223DAE904019FEDD5
:104D3000308B02F075FADDE90823FFF7AFFC53EC86
:104D4000182BFFF7ABFCDDE9022302F069FACDE98D
:104D50000201DAE9002351EC190B02F061FADDE9F6
:104D60000823FFF79BFC064688462046FFF77EFC9B
:104D700002460B463046414602F0C6FA53EC182B69
:104D8000FFF78CFCDDE9022302F04AFACDE90201CB
:104D90000FB13C80002400940022044B02A802F0D2
:104DA00047FEA8B3012837D042E000BF0000F03F23
:104DB0000000000000000080CD3B7F669EA0E63F23
:104DC000000000000000F03F000000000000E03F95
:104DD000000050400000903FEF39FAFE422EE63FBF
:104DE0000000E0C00000E0400000E0BF0000E03F45
:104DF000EF39FAFE422EE63F000000000000F07F8F
:104E00000000000000000000000000000000F0FFB3
:104E10000020CDE9020007E00020014902E000BFC8
:104E20000000F07FCDE9020102F0C4F92221016007
:104E3000002D1DBFDDE9020181F0004141EC100BA6
:104E40009DED020B51EC100B0AB0BDEC088BBDE8D8
:104E5000F48580B50020009053EC112B51EC100B21
:104E6000FFF7B6FD41EC100B01BD00000000000093
:104E7000000000000000F0BF000000000000008003
:104E800000000000000000800000000000000000A2
:104E9000000000C05294EEBF00000048204E51BEFA
:104EA000000000F86467BCBC0000000000000000C7
:104EB000000000208133EDBF00000080B3DB14BE92
:104EC000000000506706A3BC0000000000000000C6
:104ED000000000D0E9DCEBBF00000008C39259BE1F
:104EE00000000080B0D3B8BC00000000000000004B
:104EF00000000070F98FEABF000000C0A51028BEB6
:104F0000000000E8BFC0B0BC0000000000000000CE
:104F100000000070284CE9BF00000060134B42BE47
:104F2000000000C03D20B8BC0000000000000000F0
:104F300000000050FA10E8BF000000C05FF62BBE72
:104F4000000000905C71A7BC0000000000000000A1
:104F500000000020FCDDE6BF000000C0F8F154BEF8
:104F600000000018E9F6B9BC0000000000000000D5
:104F7000000000D0C3B2E5BF00000070E43254BEB0
:104F800000000050DB06B4BC000000000000000080
:104F900000000010EF8EE4BF00000020F36252BE5C
:104FA000000000C02A879ABC00000000000000003A
:104FB000000000B02272E3BF000000F0E8E056BE3F
:104FC00000000028352DBDBC0000000000000000DE
:104FD000000000000A5CE2BF000000B0FA8E41BE93
:104FE00000000040AE6FBDBC0000000000000000EB
:104FF00000000000564CE1BF000000F015CD5FBE80
:1050000000000000141C90BC000000000000000024
:1050100000000040BD42E0BF00000030F93457BE40
:10502000000000E06C1E93BC0000000000000000C7
:10503000000000E0F57DDEBF000000B08A535EBED8
:1050400000000080DA77AABC000000000000000029
:10505000000000C09D81DCBF00000000FFA226BE52
:105060000000006057E2B0BC00000000000000003B
:1050700000000060F98FDABF000000580A8151BEBD
:10508000000000F05F60B8BC0000000000000000FD
:105090000000000098A8D8BF000000607A7F45BEDD
:1050A000000000D05433A3BC00000000000000004A
:1050B000000000600FCBD6BF000000D091CB40BEF7
:1050C000000000406D1BA0BC0000000000000000BC
:1050D000000000A0FBF6D4BF00000098C5CE52BE71
:1050E000000000003A397EBC000000000000000013
:1050F000000000E0FE2BD3BF0000004073872BBEF2
:1051000000000000926879BC000000000000000070
:1051100000000040C069D1BF00000058F16353BED9
:1051200000000080438D7CBC0000000000000000F7
:1051300000000080D85FCFBF000000181F8354BE5E
:10514000000000B03F42A2BC0000000000000000D0
:105150000000008067FCCBBF00000060FAFF53BE78
:1051600000000050E00DB8BC00000000000000008E
:105170000000000098A8C8BF000000607A7F35BE1C
:10518000000000C0543393BC000000000000000089
:1051900000000000DC63C5BF00000058D6FF54BE0D
:1051A00000000000396490BC000000000000000016
:1051B000000000C0AD2DC2BF00000080A45915BE84
:1051C000000000E0484BABBC000000000000000005
:1051D000000000801A0BBEBF00000050BF3C5ABE4A
:1051E000000000A0B364B6BC000000000000000096
:1051F0000000008004D6B7BF00000040BBCF36BE21
:105200000000008076CEA8BC000000000000000076
:105210000000008032BBB1BF000000402A0043BE46
:1052200000000028C60CBDBC00000000000000000B
:10523000000000009473A7BF000000182B3B59BE6C
:10524000000000C0E55DA5BC0000000000000000FB
:1052500000000000EE4397BF000000A0E6C340BE80
:1052600000000020958DB5BC00000000000000008B
:10527000000000000000008000000000000000802E
:10528000000000000000008000000000000000009E
:105290004FEAF17CBCF1E04C2CBFBCF5001F11E0E3
:1052A0005FEA4C0C34BFBCF17F5F2EE05FEA9C0CE0
:1052B0004FEA0C1C4FEA3C0CC10071F100414CEB71
:1052C00050707047C90241EA5051C00218BF41F006
:1052D000010141F000414FEA6C50C0F10900212862
:1052E00010D240EACC7CCCF1200C11FA0CF070F119
:1052F0000040CCF1200C21FA0CF00CF0004C40EBFB
:105300000C0070474FEACC707047490011F5001F40
:1053100004D84FEACC10FF30C0057047C81770475B
:1053200000B585B000A80FF298411422FDF700F8EF
:1053300000A9DFF8180401F057F9002803D00FF294
:105340005C40FFF795F805B000BD80B54FF47A7268
:10535000DFF8E813DFF8F00302F011FD002002BDD2
:105360007047DFF8EC03704710B586B0044601A81B
:105370001421FDF715F8FFF7F4FF00900D222146E8
:1053800001A8FCF7C5FF0420ADF8070000A901A89B
:1053900001F01AFE06B010BDF0B589B0044602A8AF
:1053A0001421FCF7FDFF00200146CDE90001012595
:1053B00010E0284600F0B1FB00280AD0DDE90067C4
:1053C000012000212A4602F043FD30433943CDE954
:1053D00000016D1C292DECDB0D22214602A8FCF7F3
:1053E00097FF0820ADF80B0000A902A801F0ECFD22
:1053F00009B0F0BD10B5040002D00FF2B43101E0E5
:105400000FF2B4310FF2A030FFF732F8CC4804703D
:1054100010BDCB4800787047C94840787047C848ED
:105420008078704770B586B0044600A81421FCF758
:10543000B7FF0D22214600A8FCF76AFFC04CD4E953
:105440000401002901D100280DD00DF105052A68BD
:105450006B68101A63EB0101BA4A0123994202D822
:1054600022D3904220D3BB4D2878401C2870802046
:1054700080F3118800BF00BF6878401C6870FEF799
:10548000DBFF0DF1050632687368C4E90423C4E943
:1054900006016878401E6870C0B2002802D1002062
:1054A00080F3118801F026FB06B070BDA449D1E954
:1054B0000423C0E90023D1E90623C0E90223704791
:1054C00038B5FEF7B9FF9E4AD2E904452018694174
:1054D000D2E90645001BA94134BD994902780A71F9
:1054E00042784A71807888710020088170470622CE
:1054F0009949FCF70DBF924A136A002B01D0CB1AD1
:1055000000E00346B3F57A7F00D3034610891818EC
:10551000108100B2B0F57A7F05DBA0F57A701081BA
:105520009079401C907192F906003C2804DB3C38CD
:1055300090715079401C507192F905003C2804DBB1
:105540003C3850711079401C107192F904001828F1
:1055500001DB0020107111627047000010B50428B3
:1055600001DA022010BD142801DA022400E00A2426
:1055700090FBF4F0FFF77AF841EC100B02F079FCA5
:1055800051EC100BFFF75CF9FFF770F841EC110BD1
:105590009FED720BFFF75DFC51EC100BFFF750F91C
:1055A000604310BD00B587B002A80FF22821142275
:1055B000FCF7BEFE00A800210A4606C0FEF78EFDDD
:1055C00001788DF8001000A9C2784A7042798DF8F0
:1055D00002208079C87001208DF804000520ADF804
:1055E0000B0002A801F0F0FC07B000BD30B59FB081
:1055F00005A86421FCF7D4FE00A80FF2EC111422D8
:10560000FCF796FE0024FF22642105A8FCF752FE59
:10561000012517E02846C0B200F07FFA002810D01C
:105620002946491E012906D9C91E022903D9091F85
:1056300001D01A3905D105A964B26554408A401CCD
:1056400004196D1C092DE5DB64B2ADF8034005A912
:1056500000A801F0B9FC00201FB030BD10B5044611
:10566000A0780146491E012910D9091F19D0491EE9
:105670001AD0491E012924D9891E012929D9203986
:105680002FD1D4F80D00FFF728FF2AE0012801D11F
:10569000002000E001202A490870072002F01DFCCC
:1056A0001FE0294802F077FBA078052801D10120EE
:1056B00000E0002022498870891C062002F00DFCC1
:1056C0000FE0072801D1012000E000201C49C8702C
:1056D00007E01B49092802D10020487001E00120A1
:1056E0004870A0781438032801D915380ED12C2021
:1056F00000F013FA030009D0D4F80D20B4F8031019
:10570000A078DB691B69BDE81040184710BD81789F
:105710000C2908D0182908D01B2905D02C2905D020
:10572000312904D070471FE636E63BE75EE70448C0
:105730000078002801D1FEF703BF70472163000005
:1057400030C3030000F2052A54C30300606A03005B
:105750003CD23101C054030034C3030000000000F8
:105760000000004080B500228DF80020082801DAF2
:10577000002809D1052907DA01208DF8000000A9C9
:10578000052002F0AAFB01BD052805DA082903DB84
:1057900000A9052002F0A1FB01BD0000736B697038
:1057A0002052434900000000617020257300000072
:1057B00073757370656E6400726573756D65000056
:1057C00004FF3100000000000000000000000000A5
:1057D0000000000004FF18000000000000000000AE
:1057E000000000000000000004FF2C00000000008A
:1057F0000000000000000000000000002DE9F04162
:1058000000242546DFF8E4761EE00520FEF76AFC5A
:105810000020F16909688847002804D02046441C0C
:10582000C0B20228F1DBE4B2032C0BDB002031789C
:1058300047F82100307857F82000C8F804003046B7
:1058400001F0B0FB6D1C0024212D18DA2C2001F092
:1058500091FB064622462C21FCF72CFDDFF89086B2
:10586000304658F835108847307847F8206008EB04
:10587000C508307857F82000C8F80400C8E720466B
:10588000BDE8F08130B400216FF00042104616E010
:10589000DFF85C4604EBC3035B68002B0ED01C6A88
:1058A000002C0BD0DD78002D08D1E4681B78052B87
:1058B00001D1042C02D0A04200DD2046491C49B28F
:1058C0000B46212BE4DB082801D0102800D104204E
:1058D000904200D1002030BC704710B50C46816862
:1058E000002901D0A1606160C078012801D10020A9
:1058F00060606068FFF732FE6060A06010BD2DE957
:10590000F04184B0044615462646DFF8E00550F81D
:10591000267008788DF80000486801908868029029
:10592000002F01D103203DE000A93846FFF7D5FF45
:1059300000A907F1200002F00BFC07F11C0898F801
:105940000C00012807D10020F969496888472046E2
:1059500002F05EFD09E03879012806D19DF80000CB
:10596000002802D1204600F034FA2A4600213720D0
:10597000FB691B699847F878002804D1DFF8741593
:10598000022000F03FFCD8F80800002801D00123D5
:1059900000E0002398F80C2031460FF26450FEF727
:1059A00067FD002004B0BDE8F081FEB50646144650
:1059B000DFF8380550F8265008788DF80000486860
:1059C000019088680290002D08D005F11C079DF811
:1059D000000000280AD1B868002801D10320FEBDCC
:1059E000C0680190B8680069029003E000A92846E9
:1059F000FFF773FF00A905F1200002F0C9FBEB6976
:105A0000387B002803D10020D968884704E022466B
:105A1000002138201B699847DFF8D814022000F0D5
:105A2000F1FBB868002801D0012300E000233A7B95
:105A300031460FF2D840FEF71BFD0020FEBD2DE9D8
:105A4000F04106460C461546DFF8A00450F82670D3
:105A50003846FFF742FF002F05D007F11C08D8F8A1
:105A60000800002801D103202BE0C1686268914240
:105A700005D10169A268914201D1002021E000F125
:105A8000080107F1200002F083FB002818D121460D
:105A900007F1200002F05CFB2A4600213920FB6957
:105AA0001B699847DFF84C14022000F0ABFB98F814
:105AB0000C2031460FF26040FEF7DAFC002000E0D7
:105AC0000320BDE8F08110B50C4611461A46DFF8F8
:105AD0001C3453F82030002B01D1012010BD20468A
